{
  "contractName": "AtemRefund",
  "abi": [
    {
      "inputs": [],
      "stateMutability": "nonpayable",
      "type": "constructor"
    },
    {
      "anonymous": false,
      "inputs": [
        {
          "indexed": true,
          "internalType": "address",
          "name": "previousOwner",
          "type": "address"
        },
        {
          "indexed": true,
          "internalType": "address",
          "name": "newOwner",
          "type": "address"
        }
      ],
      "name": "OwnershipTransferred",
      "type": "event"
    },
    {
      "inputs": [
        {
          "internalType": "uint256",
          "name": "",
          "type": "uint256"
        }
      ],
      "name": "burnedList",
      "outputs": [
        {
          "internalType": "bool",
          "name": "",
          "type": "bool"
        }
      ],
      "stateMutability": "view",
      "type": "function"
    },
    {
      "inputs": [],
      "name": "owner",
      "outputs": [
        {
          "internalType": "address",
          "name": "",
          "type": "address"
        }
      ],
      "stateMutability": "view",
      "type": "function"
    },
    {
      "inputs": [],
      "name": "renounceOwnership",
      "outputs": [],
      "stateMutability": "nonpayable",
      "type": "function"
    },
    {
      "inputs": [
        {
          "internalType": "address",
          "name": "newOwner",
          "type": "address"
        }
      ],
      "name": "transferOwnership",
      "outputs": [],
      "stateMutability": "nonpayable",
      "type": "function"
    },
    {
      "inputs": [
        {
          "internalType": "address",
          "name": "",
          "type": "address"
        }
      ],
      "name": "whitelist",
      "outputs": [
        {
          "internalType": "bool",
          "name": "",
          "type": "bool"
        }
      ],
      "stateMutability": "view",
      "type": "function"
    },
    {
      "inputs": [
        {
          "internalType": "uint256",
          "name": "tokenId",
          "type": "uint256"
        }
      ],
      "name": "burnAndRefund",
      "outputs": [],
      "stateMutability": "payable",
      "type": "function"
    },
    {
      "inputs": [],
      "name": "getBurnedCount",
      "outputs": [
        {
          "internalType": "uint256",
          "name": "",
          "type": "uint256"
        }
      ],
      "stateMutability": "view",
      "type": "function"
    },
    {
      "inputs": [],
      "name": "getWhitelistCount",
      "outputs": [
        {
          "internalType": "uint256",
          "name": "",
          "type": "uint256"
        }
      ],
      "stateMutability": "view",
      "type": "function"
    },
    {
      "inputs": [],
      "name": "isPaused",
      "outputs": [
        {
          "internalType": "bool",
          "name": "",
          "type": "bool"
        }
      ],
      "stateMutability": "view",
      "type": "function"
    },
    {
      "inputs": [],
      "name": "getRefundAmountPerUser",
      "outputs": [
        {
          "internalType": "uint256",
          "name": "",
          "type": "uint256"
        }
      ],
      "stateMutability": "view",
      "type": "function"
    },
    {
      "inputs": [],
      "name": "totalRefundAmount",
      "outputs": [
        {
          "internalType": "uint256",
          "name": "",
          "type": "uint256"
        }
      ],
      "stateMutability": "view",
      "type": "function"
    },
    {
      "inputs": [
        {
          "internalType": "bool",
          "name": "val",
          "type": "bool"
        }
      ],
      "name": "pause",
      "outputs": [],
      "stateMutability": "nonpayable",
      "type": "function"
    },
    {
      "inputs": [
        {
          "internalType": "address",
          "name": "_addr",
          "type": "address"
        }
      ],
      "name": "addwhitelist",
      "outputs": [],
      "stateMutability": "nonpayable",
      "type": "function"
    },
    {
      "inputs": [
        {
          "internalType": "address",
          "name": "_nftContractAddress",
          "type": "address"
        }
      ],
      "name": "setNFTContractAddress",
      "outputs": [],
      "stateMutability": "nonpayable",
      "type": "function"
    },
    {
      "inputs": [
        {
          "internalType": "uint256",
          "name": "amount",
          "type": "uint256"
        }
      ],
      "name": "setRefundAmountPerUser",
      "outputs": [],
      "stateMutability": "nonpayable",
      "type": "function"
    },
    {
      "inputs": [],
      "name": "deposit",
      "outputs": [],
      "stateMutability": "payable",
      "type": "function"
    },
    {
      "inputs": [],
      "name": "withdrawAll",
      "outputs": [],
      "stateMutability": "payable",
      "type": "function"
    },
    {
      "inputs": [],
      "name": "withdraw",
      "outputs": [],
      "stateMutability": "payable",
      "type": "function"
    }
  ],
  "bytecode": "0x6080604052670429d069189e0000600155600280547301be23585060835e02b77ef475b0cc51aa1e07096001600160a01b031991821681179092556003805482169092179091556004805490911690556000600881905560095534801561006557600080fd5b5061006f33610091565b61007960006100e1565b6007805461ff001916905561008c610141565b61026d565b600080546001600160a01b038381166001600160a01b0319831681178455604051919092169283917f8be0079c531659141344cd1fd0a4f28419497f9722a3daafe3b4186f6b6457e09190a35050565b6000546001600160a01b0316331461012e5760405162461bcd60e51b81526020600482018190526024820152600080516020610c9683398151915260448201526064015b60405180910390fd5b6007805460ff1916911515919091179055565b600754610100900460ff16156101995760405162461bcd60e51b815260206004820152601e60248201527f57686974656c69737420616c726561647920696e697469616c697a65642100006044820152606401610125565b6101b67371e084ab76a113727cdb1d10b0e9b1041a51ed076101c7565b6007805461ff001916610100179055565b6000546001600160a01b0316331461020f5760405162461bcd60e51b81526020600482018190526024820152600080516020610c968339815191526044820152606401610125565b6001600160a01b0381166000908152600560205260409020805460ff1916600190811790915560085461024191610247565b60085550565b6000821982111561026857634e487b7160e01b600052601160045260246000fd5b500190565b610a1a8061027c6000396000f3fe6080604052600436106101095760003560e01c80639b19251a11610095578063b187bd2611610064578063b187bd2614610299578063bbd838b2146102b1578063d0e30db0146102c4578063f2fde38b146102cc578063ff886a18146102ec57600080fd5b80639b19251a146101f4578063abe87d2f14610234578063ae3a556114610264578063b0fc77ff1461028457600080fd5b80636fa6316c116100dc5780636fa6316c1461017c578063715018a61461018f57806372012cd5146101a4578063853828b6146101c45780638da5cb5b146101cc57600080fd5b806302329a291461010e57806323949cd1146101305780633ccfd60b146101505780633edff20f14610158575b600080fd5b34801561011a57600080fd5b5061012e610129366004610905565b610301565b005b34801561013c57600080fd5b5061012e61014b36600461092e565b610347565b61012e610393565b34801561016457600080fd5b506008545b6040519081526020015b60405180910390f35b34801561018857600080fd5b5047610169565b34801561019b57600080fd5b5061012e6103d8565b3480156101b057600080fd5b5061012e6101bf366004610957565b61040e565b61012e61043d565b3480156101d857600080fd5b506000546040516001600160a01b039091168152602001610173565b34801561020057600080fd5b5061022461020f36600461092e565b60056020526000908152604090205460ff1681565b6040519015158152602001610173565b34801561024057600080fd5b5061022461024f366004610957565b60066020526000908152604090205460ff1681565b34801561027057600080fd5b5061012e61027f36600461092e565b61047c565b34801561029057600080fd5b50600954610169565b3480156102a557600080fd5b5060075460ff16610224565b61012e6102bf366004610957565b6104de565b61012e61074b565b3480156102d857600080fd5b5061012e6102e736600461092e565b610782565b3480156102f857600080fd5b50600154610169565b6000546001600160a01b031633146103345760405162461bcd60e51b815260040161032b90610970565b60405180910390fd5b6007805460ff1916911515919091179055565b6000546001600160a01b031633146103715760405162461bcd60e51b815260040161032b90610970565b600380546001600160a01b0319166001600160a01b0392909216919091179055565b6000546001600160a01b031633146103bd5760405162461bcd60e51b815260040161032b90610970565b47348110156103cb57600080fd5b6103d5333461081a565b50565b6000546001600160a01b031633146104025760405162461bcd60e51b815260040161032b90610970565b61040c60006108b5565b565b6000546001600160a01b031633146104385760405162461bcd60e51b815260040161032b90610970565b600155565b6000546001600160a01b031633146104675760405162461bcd60e51b815260040161032b90610970565b478061047257600080fd5b6103d5334761081a565b6000546001600160a01b031633146104a65760405162461bcd60e51b815260040161032b90610970565b6001600160a01b0381166000908152600560205260409020805460ff191660019081179091556008546104d8916109a5565b60085550565b6003546040516370a0823160e01b81523360048201526000916001600160a01b0316906370a0823190602401602060405180830381865afa158015610527573d6000803e3d6000fd5b505050506040513d601f19601f8201168201806040525081019061054b91906109cb565b116105845760405162461bcd60e51b81526020600482015260096024820152681b9bc8158c4813919560ba1b604482015260640161032b565b60008181526006602052604090205460ff16156105e35760405162461bcd60e51b815260206004820181905260248201527f616c7265616479206275726e656420666f72207468697320746f6b656e206964604482015260640161032b565b3360009081526005602052604090205460ff16156106435760405162461bcd60e51b815260206004820152601e60248201527f616c7265616479206275726e656420666f7220746869732077616c6c65740000604482015260640161032b565b60075460ff16156106885760405162461bcd60e51b815260206004820152600f60248201526e3830bab9b2b210313c9037bbb732b960891b604482015260640161032b565b60035460048054604051632142170760e11b815233928101929092526001600160a01b03908116602483015260448201849052909116906342842e0e90606401600060405180830381600087803b1580156106e257600080fd5b505af11580156106f6573d6000803e3d6000fd5b505050506107063360015461081a565b60008181526006602090815260408083208054600160ff19918216811790925533855260059093529220805490911682179055600954610745916109a5565b60095550565b6000546001600160a01b031633146107755760405162461bcd60e51b815260040161032b90610970565b6000341161040c57600080fd5b6000546001600160a01b031633146107ac5760405162461bcd60e51b815260040161032b90610970565b6001600160a01b0381166108115760405162461bcd60e51b815260206004820152602660248201527f4f776e61626c653a206e6577206f776e657220697320746865207a65726f206160448201526564647265737360d01b606482015260840161032b565b6103d5816108b5565b6000826001600160a01b03168260405160006040518083038185875af1925050503d8060008114610867576040519150601f19603f3d011682016040523d82523d6000602084013e61086c565b606091505b50509050806108b05760405162461bcd60e51b815260206004820152601060248201526f2a3930b739b332b9103330b4b632b21760811b604482015260640161032b565b505050565b600080546001600160a01b038381166001600160a01b0319831681178455604051919092169283917f8be0079c531659141344cd1fd0a4f28419497f9722a3daafe3b4186f6b6457e09190a35050565b60006020828403121561091757600080fd5b8135801515811461092757600080fd5b9392505050565b60006020828403121561094057600080fd5b81356001600160a01b038116811461092757600080fd5b60006020828403121561096957600080fd5b5035919050565b6020808252818101527f4f776e61626c653a2063616c6c6572206973206e6f7420746865206f776e6572604082015260600190565b600082198211156109c657634e487b7160e01b600052601160045260246000fd5b500190565b6000602082840312156109dd57600080fd5b505191905056fea2646970667358221220bffcbf8f9ab294ab61d55e6639839f0bbcd427a4db1f3f5467fd20697995a15c64736f6c634300080d00334f776e61626c653a2063616c6c6572206973206e6f7420746865206f776e6572",
  "immutableReferences": {},
  "source": "// SPDX-License-Identifier: MIT\r\npragma solidity ^0.8.0;\r\n\r\nimport \"@openzeppelin/contracts/access/Ownable.sol\";\r\nimport \"@openzeppelin/contracts/token/ERC721/IERC721.sol\";\r\nimport \"@openzeppelin/contracts/utils/math/SafeMath.sol\";\r\n\r\ncontract AtemRefund is Ownable {\r\n    using SafeMath for uint256;\r\n\r\n    uint256 private refundAmountPerUser = 3 * 10**17;\r\n    address externalNFTContractAddress = 0x01BE23585060835E02B77ef475b0Cc51aA1e0709;\r\n\r\n    IERC721 atemNFTV1 = IERC721(externalNFTContractAddress);\r\n    address burnwallet = address(0);\r\n\r\n    mapping(address => bool) public whitelist;\r\n    mapping(uint256 => bool) public burnedList;\r\n\r\n    bool private _pause;\r\n    bool private _init_whitelist;\r\n    uint256 private _whitelist_count = 0;\r\n    uint256 private _burned_count = 0;\r\n    \r\n    constructor() {\r\n        pause(false);\r\n        _init_whitelist = false;\r\n        _initwhitelist();\r\n    }\r\n\r\n    function burnAndRefund(uint256 tokenId) public payable {\r\n        require(atemNFTV1.balanceOf(msg.sender) > 0, \"no V1 NFT\");\r\n        require(!burnedList[tokenId], \"already burned for this token id\");\r\n        require(!whitelist[msg.sender], \"already burned for this wallet\");\r\n        require(!_pause, \"paused by owner\");\r\n        \r\n        // burn a NFT first\r\n        atemNFTV1.safeTransferFrom(msg.sender, burnwallet, tokenId);\r\n\r\n        _widthdraw(msg.sender, refundAmountPerUser);\r\n        burnedList[tokenId] = true;\r\n        whitelist[msg.sender] = true;\r\n        _burned_count = _burned_count + 1;\r\n    }\r\n    function _initwhitelist() private {\r\n        require(!_init_whitelist, \"Whitelist already initialized!\");\r\n\r\n        addwhitelist(0x71E084AB76a113727cdB1d10B0e9B1041a51eD07);\r\n    \r\n        _init_whitelist = true;\r\n    }\r\n    function getBurnedCount() public view returns (uint256) {\r\n        return _burned_count;\r\n    }\r\n    function getWhitelistCount() public view returns (uint256) {\r\n        return _whitelist_count;\r\n    }\r\n    function isPaused() public view returns (bool) {\r\n        return _pause;\r\n    }\r\n    function getRefundAmountPerUser() public view returns (uint256) {\r\n        return refundAmountPerUser;\r\n    }\r\n    function totalRefundAmount() public view returns (uint256) {\r\n        return address(this).balance;\r\n    }\r\n    function pause(bool val) public onlyOwner {\r\n        _pause = val;\r\n    }\r\n    function addwhitelist(address _addr) public onlyOwner {\r\n        whitelist[_addr] = true;\r\n        _whitelist_count = _whitelist_count + 1;\r\n\r\n    }\r\n    function setNFTContractAddress(address _nftContractAddress) public onlyOwner {\r\n        atemNFTV1 = IERC721(_nftContractAddress);\r\n    }\r\n    function setRefundAmountPerUser(uint256 amount) public onlyOwner {\r\n        refundAmountPerUser = amount;\r\n    }\r\n    function deposit() public payable onlyOwner {\r\n        require(msg.value > 0);\r\n    }\r\n    function withdrawAll() public payable onlyOwner {\r\n        uint256 balance = address(this).balance;\r\n        require(balance > 0);\r\n        _widthdraw(msg.sender, address(this).balance);\r\n    }\r\n    function withdraw() public payable onlyOwner {\r\n        uint256 balance = address(this).balance;\r\n        require(balance >= msg.value);\r\n        _widthdraw(msg.sender, msg.value);\r\n    }\r\n    function _widthdraw(address _address, uint256 _amount) private {\r\n        (bool success, ) = _address.call{value: _amount}(\"\");\r\n        require(success, \"Transfer failed.\");\r\n    }\r\n}",
  "sourcePath": "/mnt/e/solana-projects/atem.network/atemSmartContract/atem-refund-contract/contracts/AtemRefund.sol",
  "compiler": {
    "name": "solc",
    "version": "0.8.13+commit.abaa5c0e.Emscripten.clang"
  },
  "schemaVersion": "3.4.6",
  "updatedAt": "2022-03-22T08:42:42.394Z",
  "devdoc": {
    "kind": "dev",
    "methods": {
      "owner()": {
        "details": "Returns the address of the current owner."
      },
      "renounceOwnership()": {
        "details": "Leaves the contract without owner. It will not be possible to call `onlyOwner` functions anymore. Can only be called by the current owner. NOTE: Renouncing ownership will leave the contract without an owner, thereby removing any functionality that is only available to the owner."
      },
      "transferOwnership(address)": {
        "details": "Transfers ownership of the contract to a new account (`newOwner`). Can only be called by the current owner."
      }
    },
    "version": 1
  },
  "userdoc": {
    "kind": "user",
    "methods": {},
    "version": 1
  }
}