{
  "contractName": "AtemPassport",
  "abi": [
    {
      "inputs": [
        {
          "internalType": "string",
          "name": "baseURI",
          "type": "string"
        }
      ],
      "stateMutability": "nonpayable",
      "type": "constructor"
    },
    {
      "anonymous": false,
      "inputs": [
        {
          "indexed": true,
          "internalType": "address",
          "name": "owner",
          "type": "address"
        },
        {
          "indexed": true,
          "internalType": "address",
          "name": "approved",
          "type": "address"
        },
        {
          "indexed": true,
          "internalType": "uint256",
          "name": "tokenId",
          "type": "uint256"
        }
      ],
      "name": "Approval",
      "type": "event"
    },
    {
      "anonymous": false,
      "inputs": [
        {
          "indexed": true,
          "internalType": "address",
          "name": "owner",
          "type": "address"
        },
        {
          "indexed": true,
          "internalType": "address",
          "name": "operator",
          "type": "address"
        },
        {
          "indexed": false,
          "internalType": "bool",
          "name": "approved",
          "type": "bool"
        }
      ],
      "name": "ApprovalForAll",
      "type": "event"
    },
    {
      "anonymous": false,
      "inputs": [
        {
          "indexed": true,
          "internalType": "uint256",
          "name": "id",
          "type": "uint256"
        }
      ],
      "name": "JoinGang",
      "type": "event"
    },
    {
      "anonymous": false,
      "inputs": [
        {
          "indexed": true,
          "internalType": "address",
          "name": "previousOwner",
          "type": "address"
        },
        {
          "indexed": true,
          "internalType": "address",
          "name": "newOwner",
          "type": "address"
        }
      ],
      "name": "OwnershipTransferred",
      "type": "event"
    },
    {
      "anonymous": false,
      "inputs": [
        {
          "indexed": true,
          "internalType": "address",
          "name": "from",
          "type": "address"
        },
        {
          "indexed": true,
          "internalType": "address",
          "name": "to",
          "type": "address"
        },
        {
          "indexed": true,
          "internalType": "uint256",
          "name": "tokenId",
          "type": "uint256"
        }
      ],
      "name": "Transfer",
      "type": "event"
    },
    {
      "inputs": [],
      "name": "MAX_BY_MINT",
      "outputs": [
        {
          "internalType": "uint256",
          "name": "",
          "type": "uint256"
        }
      ],
      "stateMutability": "view",
      "type": "function",
      "constant": true
    },
    {
      "inputs": [],
      "name": "MAX_ELEMENTS",
      "outputs": [
        {
          "internalType": "uint256",
          "name": "",
          "type": "uint256"
        }
      ],
      "stateMutability": "view",
      "type": "function",
      "constant": true
    },
    {
      "inputs": [],
      "name": "MINIMUM_ETH_BALANCE",
      "outputs": [
        {
          "internalType": "uint256",
          "name": "",
          "type": "uint256"
        }
      ],
      "stateMutability": "view",
      "type": "function",
      "constant": true
    },
    {
      "inputs": [],
      "name": "PRICE",
      "outputs": [
        {
          "internalType": "uint256",
          "name": "",
          "type": "uint256"
        }
      ],
      "stateMutability": "view",
      "type": "function",
      "constant": true
    },
    {
      "inputs": [
        {
          "internalType": "address",
          "name": "to",
          "type": "address"
        },
        {
          "internalType": "uint256",
          "name": "tokenId",
          "type": "uint256"
        }
      ],
      "name": "approve",
      "outputs": [],
      "stateMutability": "nonpayable",
      "type": "function"
    },
    {
      "inputs": [
        {
          "internalType": "address",
          "name": "owner",
          "type": "address"
        }
      ],
      "name": "balanceOf",
      "outputs": [
        {
          "internalType": "uint256",
          "name": "",
          "type": "uint256"
        }
      ],
      "stateMutability": "view",
      "type": "function",
      "constant": true
    },
    {
      "inputs": [],
      "name": "baseTokenURI",
      "outputs": [
        {
          "internalType": "string",
          "name": "",
          "type": "string"
        }
      ],
      "stateMutability": "view",
      "type": "function",
      "constant": true
    },
    {
      "inputs": [
        {
          "internalType": "uint256",
          "name": "tokenId",
          "type": "uint256"
        }
      ],
      "name": "burn",
      "outputs": [],
      "stateMutability": "nonpayable",
      "type": "function"
    },
    {
      "inputs": [
        {
          "internalType": "address",
          "name": "",
          "type": "address"
        }
      ],
      "name": "claimList",
      "outputs": [
        {
          "internalType": "bool",
          "name": "",
          "type": "bool"
        }
      ],
      "stateMutability": "view",
      "type": "function",
      "constant": true
    },
    {
      "inputs": [],
      "name": "creatorAddress",
      "outputs": [
        {
          "internalType": "address",
          "name": "",
          "type": "address"
        }
      ],
      "stateMutability": "view",
      "type": "function",
      "constant": true
    },
    {
      "inputs": [
        {
          "internalType": "uint256",
          "name": "tokenId",
          "type": "uint256"
        }
      ],
      "name": "getApproved",
      "outputs": [
        {
          "internalType": "address",
          "name": "",
          "type": "address"
        }
      ],
      "stateMutability": "view",
      "type": "function",
      "constant": true
    },
    {
      "inputs": [
        {
          "internalType": "address",
          "name": "owner",
          "type": "address"
        },
        {
          "internalType": "address",
          "name": "operator",
          "type": "address"
        }
      ],
      "name": "isApprovedForAll",
      "outputs": [
        {
          "internalType": "bool",
          "name": "",
          "type": "bool"
        }
      ],
      "stateMutability": "view",
      "type": "function",
      "constant": true
    },
    {
      "inputs": [],
      "name": "name",
      "outputs": [
        {
          "internalType": "string",
          "name": "",
          "type": "string"
        }
      ],
      "stateMutability": "view",
      "type": "function",
      "constant": true
    },
    {
      "inputs": [],
      "name": "owner",
      "outputs": [
        {
          "internalType": "address",
          "name": "",
          "type": "address"
        }
      ],
      "stateMutability": "view",
      "type": "function",
      "constant": true
    },
    {
      "inputs": [
        {
          "internalType": "uint256",
          "name": "tokenId",
          "type": "uint256"
        }
      ],
      "name": "ownerOf",
      "outputs": [
        {
          "internalType": "address",
          "name": "",
          "type": "address"
        }
      ],
      "stateMutability": "view",
      "type": "function",
      "constant": true
    },
    {
      "inputs": [],
      "name": "renounceOwnership",
      "outputs": [],
      "stateMutability": "nonpayable",
      "type": "function"
    },
    {
      "inputs": [
        {
          "internalType": "address",
          "name": "from",
          "type": "address"
        },
        {
          "internalType": "address",
          "name": "to",
          "type": "address"
        },
        {
          "internalType": "uint256",
          "name": "tokenId",
          "type": "uint256"
        }
      ],
      "name": "safeTransferFrom",
      "outputs": [],
      "stateMutability": "nonpayable",
      "type": "function"
    },
    {
      "inputs": [
        {
          "internalType": "address",
          "name": "from",
          "type": "address"
        },
        {
          "internalType": "address",
          "name": "to",
          "type": "address"
        },
        {
          "internalType": "uint256",
          "name": "tokenId",
          "type": "uint256"
        },
        {
          "internalType": "bytes",
          "name": "_data",
          "type": "bytes"
        }
      ],
      "name": "safeTransferFrom",
      "outputs": [],
      "stateMutability": "nonpayable",
      "type": "function"
    },
    {
      "inputs": [
        {
          "internalType": "address",
          "name": "operator",
          "type": "address"
        },
        {
          "internalType": "bool",
          "name": "approved",
          "type": "bool"
        }
      ],
      "name": "setApprovalForAll",
      "outputs": [],
      "stateMutability": "nonpayable",
      "type": "function"
    },
    {
      "inputs": [],
      "name": "symbol",
      "outputs": [
        {
          "internalType": "string",
          "name": "",
          "type": "string"
        }
      ],
      "stateMutability": "view",
      "type": "function",
      "constant": true
    },
    {
      "inputs": [
        {
          "internalType": "uint256",
          "name": "index",
          "type": "uint256"
        }
      ],
      "name": "tokenByIndex",
      "outputs": [
        {
          "internalType": "uint256",
          "name": "",
          "type": "uint256"
        }
      ],
      "stateMutability": "view",
      "type": "function",
      "constant": true
    },
    {
      "inputs": [
        {
          "internalType": "address",
          "name": "owner",
          "type": "address"
        },
        {
          "internalType": "uint256",
          "name": "index",
          "type": "uint256"
        }
      ],
      "name": "tokenOfOwnerByIndex",
      "outputs": [
        {
          "internalType": "uint256",
          "name": "",
          "type": "uint256"
        }
      ],
      "stateMutability": "view",
      "type": "function",
      "constant": true
    },
    {
      "inputs": [],
      "name": "totalSupply",
      "outputs": [
        {
          "internalType": "uint256",
          "name": "",
          "type": "uint256"
        }
      ],
      "stateMutability": "view",
      "type": "function",
      "constant": true
    },
    {
      "inputs": [
        {
          "internalType": "address",
          "name": "newOwner",
          "type": "address"
        }
      ],
      "name": "transfer",
      "outputs": [],
      "stateMutability": "nonpayable",
      "type": "function"
    },
    {
      "inputs": [
        {
          "internalType": "address",
          "name": "from",
          "type": "address"
        },
        {
          "internalType": "address",
          "name": "to",
          "type": "address"
        },
        {
          "internalType": "uint256",
          "name": "tokenId",
          "type": "uint256"
        }
      ],
      "name": "transferFrom",
      "outputs": [],
      "stateMutability": "nonpayable",
      "type": "function"
    },
    {
      "inputs": [
        {
          "internalType": "address",
          "name": "newOwner",
          "type": "address"
        }
      ],
      "name": "transferOwnership",
      "outputs": [],
      "stateMutability": "nonpayable",
      "type": "function"
    },
    {
      "inputs": [
        {
          "internalType": "address",
          "name": "",
          "type": "address"
        }
      ],
      "name": "whitelist",
      "outputs": [
        {
          "internalType": "bool",
          "name": "",
          "type": "bool"
        }
      ],
      "stateMutability": "view",
      "type": "function",
      "constant": true
    },
    {
      "inputs": [],
      "name": "totalMint",
      "outputs": [
        {
          "internalType": "uint256",
          "name": "",
          "type": "uint256"
        }
      ],
      "stateMutability": "view",
      "type": "function",
      "constant": true
    },
    {
      "inputs": [],
      "name": "isPaused",
      "outputs": [
        {
          "internalType": "bool",
          "name": "",
          "type": "bool"
        }
      ],
      "stateMutability": "view",
      "type": "function",
      "constant": true
    },
    {
      "inputs": [
        {
          "internalType": "uint256",
          "name": "tokenId",
          "type": "uint256"
        }
      ],
      "name": "tokenURI",
      "outputs": [
        {
          "internalType": "string",
          "name": "",
          "type": "string"
        }
      ],
      "stateMutability": "view",
      "type": "function",
      "constant": true
    },
    {
      "inputs": [
        {
          "internalType": "address",
          "name": "_addr",
          "type": "address"
        }
      ],
      "name": "addwhitelist",
      "outputs": [],
      "stateMutability": "nonpayable",
      "type": "function"
    },
    {
      "inputs": [
        {
          "internalType": "address",
          "name": "_addr",
          "type": "address"
        }
      ],
      "name": "hasAtemNft",
      "outputs": [
        {
          "internalType": "bool",
          "name": "",
          "type": "bool"
        }
      ],
      "stateMutability": "view",
      "type": "function",
      "constant": true
    },
    {
      "inputs": [],
      "name": "isMintable",
      "outputs": [
        {
          "internalType": "bool",
          "name": "",
          "type": "bool"
        }
      ],
      "stateMutability": "view",
      "type": "function",
      "constant": true
    },
    {
      "inputs": [],
      "name": "mint",
      "outputs": [],
      "stateMutability": "payable",
      "type": "function",
      "payable": true
    },
    {
      "inputs": [
        {
          "internalType": "uint256",
          "name": "_count",
          "type": "uint256"
        }
      ],
      "name": "price",
      "outputs": [
        {
          "internalType": "uint256",
          "name": "",
          "type": "uint256"
        }
      ],
      "stateMutability": "pure",
      "type": "function",
      "constant": true
    },
    {
      "inputs": [
        {
          "internalType": "string",
          "name": "baseURI",
          "type": "string"
        }
      ],
      "name": "setBaseURI",
      "outputs": [],
      "stateMutability": "nonpayable",
      "type": "function"
    },
    {
      "inputs": [
        {
          "internalType": "address",
          "name": "_owner",
          "type": "address"
        }
      ],
      "name": "walletOfOwner",
      "outputs": [
        {
          "internalType": "uint256[]",
          "name": "",
          "type": "uint256[]"
        }
      ],
      "stateMutability": "view",
      "type": "function",
      "constant": true
    },
    {
      "inputs": [
        {
          "internalType": "bool",
          "name": "val",
          "type": "bool"
        }
      ],
      "name": "pause",
      "outputs": [],
      "stateMutability": "nonpayable",
      "type": "function"
    },
    {
      "inputs": [
        {
          "internalType": "address",
          "name": "newOwner",
          "type": "address"
        }
      ],
      "name": "transferOwner",
      "outputs": [],
      "stateMutability": "nonpayable",
      "type": "function"
    },
    {
      "inputs": [],
      "name": "withdrawAll",
      "outputs": [],
      "stateMutability": "payable",
      "type": "function",
      "payable": true
    },
    {
      "inputs": [
        {
          "internalType": "bytes4",
          "name": "interfaceId",
          "type": "bytes4"
        }
      ],
      "name": "supportsInterface",
      "outputs": [
        {
          "internalType": "bool",
          "name": "",
          "type": "bool"
        }
      ],
      "stateMutability": "view",
      "type": "function",
      "constant": true
    },
    {
      "inputs": [
        {
          "internalType": "uint256",
          "name": "_count",
          "type": "uint256"
        }
      ],
      "name": "reserve",
      "outputs": [],
      "stateMutability": "nonpayable",
      "type": "function"
    }
  ],
  "bytecode": "0x60806040523480156200001157600080fd5b5060405162002c8838038062002c888339810160408190526200003491620002af565b604080518082018252600f81526e105d195b53999d14185cdcdc1bdc9d608a1b6020808301918252835180850190945260038452620414e560ec1b9084015281519192916200008691600091620001f3565b5080516200009c906001906020840190620001f3565b505050620000b9620000b3620000d760201b60201c565b620000db565b620000c4816200012d565b620000d0600162000195565b50620003c8565b3390565b600a80546001600160a01b038381166001600160a01b0319831681179093556040519116919082907f8be0079c531659141344cd1fd0a4f28419497f9722a3daafe3b4186f6b6457e090600090a35050565b600a546001600160a01b031633146200017c5760405162461bcd60e51b8152602060048201819052602482015260008051602062002c6883398151915260448201526064015b60405180910390fd5b80516200019190600c906020840190620001f3565b5050565b600a546001600160a01b03163314620001e05760405162461bcd60e51b8152602060048201819052602482015260008051602062002c68833981519152604482015260640162000173565b600d805460ff1916911515919091179055565b82805462000201906200038b565b90600052602060002090601f01602090048101928262000225576000855562000270565b82601f106200024057805160ff191683800117855562000270565b8280016001018555821562000270579182015b828111156200027057825182559160200191906001019062000253565b506200027e92915062000282565b5090565b5b808211156200027e576000815560010162000283565b634e487b7160e01b600052604160045260246000fd5b60006020808385031215620002c357600080fd5b82516001600160401b0380821115620002db57600080fd5b818501915085601f830112620002f057600080fd5b81518181111562000305576200030562000299565b604051601f8201601f19908116603f0116810190838211818310171562000330576200033062000299565b8160405282815288868487010111156200034957600080fd5b600093505b828410156200036d57848401860151818501870152928501926200034e565b828411156200037f5760008684830101525b98975050505050505050565b600181811c90821680620003a057607f821691505b60208210811415620003c257634e487b7160e01b600052602260045260246000fd5b50919050565b61289080620003d86000396000f3fe6080604052600436106102515760003560e01c80636352211e116101395780639b19251a116100b6578063b88d4fde1161007a578063b88d4fde146106b0578063c87b56dd146106d0578063d547cfb7146106f0578063e927fc5c14610705578063e985e9c51461072d578063f2fde38b1461077657600080fd5b80639b19251a1461060c578063a22cb4651461063c578063a5fbccce1461065c578063ae3a556114610678578063b187bd261461069857600080fd5b80638ad5de28116100fd5780638ad5de28146105885780638d859f3e1461059d5780638da5cb5b146105b957806394c145db146105d757806395d89b41146105f757600080fd5b80636352211e1461050b57806370a082311461052b578063715018a61461054b578063819b25ba14610560578063853828b61461058057600080fd5b80632f745c59116101d257806345f60e031161019657806345f60e031461045157806346b45af7146104815780634f6ccce7146104965780634fb2e45d146104b657806355f804b3146104d657806359a7715a146104f657600080fd5b80632f745c59146103ae5780633502a716146103ce57806342842e0e146103e457806342966c6814610404578063438b63001461042457600080fd5b80631249c58b116102195780631249c58b1461032757806318160ddd1461032f5780631a6952301461034e57806323b872dd1461036e57806326a49e371461038e57600080fd5b806301ffc9a71461025657806302329a291461028b57806306fdde03146102ad578063081812fc146102cf578063095ea7b314610307575b600080fd5b34801561026257600080fd5b5061027661027136600461220f565b610796565b60405190151581526020015b60405180910390f35b34801561029757600080fd5b506102ab6102a6366004612241565b6107a7565b005b3480156102b957600080fd5b506102c26107ed565b60405161028291906122b4565b3480156102db57600080fd5b506102ef6102ea3660046122c7565b61087f565b6040516001600160a01b039091168152602001610282565b34801561031357600080fd5b506102ab6103223660046122f7565b610914565b6102ab610a2a565b34801561033b57600080fd5b506008545b604051908152602001610282565b34801561035a57600080fd5b506102ab610369366004612321565b610b7f565b34801561037a57600080fd5b506102ab61038936600461233c565b610bfc565b34801561039a57600080fd5b506103406103a93660046122c7565b610c2e565b3480156103ba57600080fd5b506103406103c93660046122f7565b610c42565b3480156103da57600080fd5b5061034061138881565b3480156103f057600080fd5b506102ab6103ff36600461233c565b610cd8565b34801561041057600080fd5b506102ab61041f3660046122c7565b610cf3565b34801561043057600080fd5b5061044461043f366004612321565b610d6d565b6040516102829190612378565b34801561045d57600080fd5b5061027661046c366004612321565b600f6020526000908152604090205460ff1681565b34801561048d57600080fd5b50610276610e0f565b3480156104a257600080fd5b506103406104b13660046122c7565b610ec4565b3480156104c257600080fd5b506102ab6104d1366004612321565b610f57565b3480156104e257600080fd5b506102ab6104f1366004612448565b610f8a565b34801561050257600080fd5b50610340610fcb565b34801561051757600080fd5b506102ef6105263660046122c7565b610fda565b34801561053757600080fd5b50610340610546366004612321565b611051565b34801561055757600080fd5b506102ab6110d8565b34801561056c57600080fd5b506102ab61057b3660046122c7565b61110e565b6102ab6111af565b34801561059457600080fd5b50610340600f81565b3480156105a957600080fd5b5061034067013fbe85edc9000081565b3480156105c557600080fd5b50600a546001600160a01b03166102ef565b3480156105e357600080fd5b506102766105f2366004612321565b611202565b34801561060357600080fd5b506102c2611224565b34801561061857600080fd5b50610276610627366004612321565b600e6020526000908152604090205460ff1681565b34801561064857600080fd5b506102ab610657366004612491565b611233565b34801561066857600080fd5b50610340670429d069189e000081565b34801561068457600080fd5b506102ab610693366004612321565b6112f8565b3480156106a457600080fd5b50600d5460ff16610276565b3480156106bc57600080fd5b506102ab6106cb3660046124c4565b611346565b3480156106dc57600080fd5b506102c26106eb3660046122c7565b61137e565b3480156106fc57600080fd5b506102c26113e4565b34801561071157600080fd5b506102ef73b784115f6e0d40f5f87739a83fe428bfddd4ab5581565b34801561073957600080fd5b50610276610748366004612540565b6001600160a01b03918216600090815260056020908152604080832093909416825291909152205460ff1690565b34801561078257600080fd5b506102ab610791366004612321565b611472565b60006107a18261150a565b92915050565b600a546001600160a01b031633146107da5760405162461bcd60e51b81526004016107d19061256a565b60405180910390fd5b600d805460ff1916911515919091179055565b6060600080546107fc9061259f565b80601f01602080910402602001604051908101604052809291908181526020018280546108289061259f565b80156108755780601f1061084a57610100808354040283529160200191610875565b820191906000526020600020905b81548152906001019060200180831161085857829003601f168201915b5050505050905090565b6000818152600260205260408120546001600160a01b03166108f85760405162461bcd60e51b815260206004820152602c60248201527f4552433732313a20617070726f76656420717565727920666f72206e6f6e657860448201526b34b9ba32b73a103a37b5b2b760a11b60648201526084016107d1565b506000908152600460205260409020546001600160a01b031690565b600061091f82610fda565b9050806001600160a01b0316836001600160a01b0316141561098d5760405162461bcd60e51b815260206004820152602160248201527f4552433732313a20617070726f76616c20746f2063757272656e74206f776e656044820152603960f91b60648201526084016107d1565b336001600160a01b03821614806109a957506109a98133610748565b610a1b5760405162461bcd60e51b815260206004820152603860248201527f4552433732313a20617070726f76652063616c6c6572206973206e6f74206f7760448201527f6e6572206e6f7220617070726f76656420666f7220616c6c000000000000000060648201526084016107d1565b610a25838361152f565b505050565b611388610a3561159d565b1115610a6e5760405162461bcd60e51b815260206004820152600860248201526714d85b1948195b9960c21b60448201526064016107d1565b600a546001600160a01b03163314610ac657600d5460ff1615610ac65760405162461bcd60e51b815260206004820152601060248201526f14185d5cd8589b194e881c185d5cd95960821b60448201526064016107d1565b6000610ad061159d565b9050611388811115610b0f5760405162461bcd60e51b815260206004820152600860248201526714d85b1948195b9960c21b60448201526064016107d1565b610b17610e0f565b610b595760405162461bcd60e51b8152602060048201526013602482015272139bdd08185b1b1bddd959081d1bc81b5a5b9d606a1b60448201526064016107d1565b610b62336115a8565b50336000908152600f60205260409020805460ff19166001179055565b600a546001600160a01b0316331415610bda5760405162461bcd60e51b815260206004820152601860248201527f4f776e61626c653a20697420697320666f72206f776e6572000000000000000060448201526064016107d1565b600a80546001600160a01b0319166001600160a01b0392909216919091179055565b610c07335b8261160e565b610c235760405162461bcd60e51b81526004016107d1906125da565b610a25838383611705565b60006107a167013fbe85edc90000836118b0565b6000610c4d83611051565b8210610caf5760405162461bcd60e51b815260206004820152602b60248201527f455243373231456e756d657261626c653a206f776e657220696e646578206f7560448201526a74206f6620626f756e647360a81b60648201526084016107d1565b506001600160a01b03919091166000908152600660209081526040808320938352929052205490565b610a2583838360405180602001604052806000815250611346565b610cfc33610c01565b610d615760405162461bcd60e51b815260206004820152603060248201527f4552433732314275726e61626c653a2063616c6c6572206973206e6f74206f7760448201526f1b995c881b9bdc88185c1c1c9bdd995960821b60648201526084016107d1565b610d6a816118c3565b50565b60606000610d7a83611051565b905060008167ffffffffffffffff811115610d9757610d976123bc565b604051908082528060200260200182016040528015610dc0578160200160208202803683370190505b50905060005b82811015610e0757610dd88582610c42565b828281518110610dea57610dea61262b565b602090810291909101015280610dff81612657565b915050610dc6565b509392505050565b6000610e1d600d5460ff1690565b15610e5c5760405162461bcd60e51b815260206004820152600f60248201526e3830bab9b2b210313c9037bbb732b960891b60448201526064016107d1565b336000908152600f602052604090205460ff1615610e7a5750600090565b336000818152600e602052604090205481319060ff16151560011415610ea35760019250505090565b670429d069189e00008110610ebb5760019250505090565b60009250505090565b6000610ecf60085490565b8210610f325760405162461bcd60e51b815260206004820152602c60248201527f455243373231456e756d657261626c653a20676c6f62616c20696e646578206f60448201526b7574206f6620626f756e647360a01b60648201526084016107d1565b60088281548110610f4557610f4561262b565b90600052602060002001549050919050565b600a546001600160a01b03163314610f815760405162461bcd60e51b81526004016107d19061256a565b610d6a81610b7f565b600a546001600160a01b03163314610fb45760405162461bcd60e51b81526004016107d19061256a565b8051610fc790600c906020840190612160565b5050565b6000610fd561159d565b905090565b6000818152600260205260408120546001600160a01b0316806107a15760405162461bcd60e51b815260206004820152602960248201527f4552433732313a206f776e657220717565727920666f72206e6f6e657869737460448201526832b73a103a37b5b2b760b91b60648201526084016107d1565b60006001600160a01b0382166110bc5760405162461bcd60e51b815260206004820152602a60248201527f4552433732313a2062616c616e636520717565727920666f7220746865207a65604482015269726f206164647265737360b01b60648201526084016107d1565b506001600160a01b031660009081526003602052604090205490565b600a546001600160a01b031633146111025760405162461bcd60e51b81526004016107d19061256a565b61110c600061196a565b565b600a546001600160a01b031633146111385760405162461bcd60e51b81526004016107d19061256a565b600061114261159d565b905060646111508383612672565b11156111895760405162461bcd60e51b8152602060048201526008602482015267115e18d95959195960c21b60448201526064016107d1565b60005b82811015610a255761119d336115a8565b806111a781612657565b91505061118c565b600a546001600160a01b031633146111d95760405162461bcd60e51b81526004016107d19061256a565b47806111e457600080fd5b610d6a73b784115f6e0d40f5f87739a83fe428bfddd4ab55476119bc565b60008061120e83611051565b111561121c57506001919050565b506000919050565b6060600180546107fc9061259f565b6001600160a01b03821633141561128c5760405162461bcd60e51b815260206004820152601960248201527f4552433732313a20617070726f766520746f2063616c6c65720000000000000060448201526064016107d1565b3360008181526005602090815260408083206001600160a01b03871680855290835292819020805460ff191686151590811790915590519081529192917f17307eab39ab6107e8899845ad3d59bd9653f200f220920489ca2b5937696c31910160405180910390a35050565b600a546001600160a01b031633146113225760405162461bcd60e51b81526004016107d19061256a565b6001600160a01b03166000908152600e60205260409020805460ff19166001179055565b611350338361160e565b61136c5760405162461bcd60e51b81526004016107d1906125da565b61137884848484611a52565b50505050565b6000818152600260205260409020546060906001600160a01b03166113b55760405162461bcd60e51b81526004016107d19061268a565b6113be82611a85565b6040516020016113ce91906126d9565b6040516020818303038152906040529050919050565b600c80546113f19061259f565b80601f016020809104026020016040519081016040528092919081815260200182805461141d9061259f565b801561146a5780601f1061143f5761010080835404028352916020019161146a565b820191906000526020600020905b81548152906001019060200180831161144d57829003601f168201915b505050505081565b600a546001600160a01b0316331461149c5760405162461bcd60e51b81526004016107d19061256a565b6001600160a01b0381166115015760405162461bcd60e51b815260206004820152602660248201527f4f776e61626c653a206e6577206f776e657220697320746865207a65726f206160448201526564647265737360d01b60648201526084016107d1565b610d6a8161196a565b60006001600160e01b0319821663780e9d6360e01b14806107a157506107a182611b17565b600081815260046020526040902080546001600160a01b0319166001600160a01b038416908117909155819061156482610fda565b6001600160a01b03167f8c5be1e5ebec7d5bd14f71427d1e84f3dd0314c0f7b2291e5b200ac8c7c3b92560405160405180910390a45050565b6000610fd5600b5490565b60006115b261159d565b90506115c2600b80546001019055565b6115d6826115d1836001612672565b611b67565b6115e1816001612672565b6040517f03b1c9b32562094329652d498e9050eee8ec111908984c08387b58027efdd5e490600090a25050565b6000818152600260205260408120546001600160a01b03166116875760405162461bcd60e51b815260206004820152602c60248201527f4552433732313a206f70657261746f7220717565727920666f72206e6f6e657860448201526b34b9ba32b73a103a37b5b2b760a11b60648201526084016107d1565b600061169283610fda565b9050806001600160a01b0316846001600160a01b031614806116cd5750836001600160a01b03166116c28461087f565b6001600160a01b0316145b806116fd57506001600160a01b0380821660009081526005602090815260408083209388168352929052205460ff165b949350505050565b826001600160a01b031661171882610fda565b6001600160a01b0316146117805760405162461bcd60e51b815260206004820152602960248201527f4552433732313a207472616e73666572206f6620746f6b656e2074686174206960448201526839903737ba1037bbb760b91b60648201526084016107d1565b6001600160a01b0382166117e25760405162461bcd60e51b8152602060048201526024808201527f4552433732313a207472616e7366657220746f20746865207a65726f206164646044820152637265737360e01b60648201526084016107d1565b6117ed838383611b81565b6117f860008261152f565b6001600160a01b03831660009081526003602052604081208054600192906118219084906126f5565b90915550506001600160a01b038216600090815260036020526040812080546001929061184f908490612672565b909155505060008181526002602052604080822080546001600160a01b0319166001600160a01b0386811691821790925591518493918716917fddf252ad1be2c89b69c2b068fc378daa952ba7f163c4a11628f55a4df523b3ef91a4505050565b60006118bc828461270c565b9392505050565b60006118ce82610fda565b90506118dc81600084611b81565b6118e760008361152f565b6001600160a01b03811660009081526003602052604081208054600192906119109084906126f5565b909155505060008281526002602052604080822080546001600160a01b0319169055518391906001600160a01b038416907fddf252ad1be2c89b69c2b068fc378daa952ba7f163c4a11628f55a4df523b3ef908390a45050565b600a80546001600160a01b038381166001600160a01b0319831681179093556040519116919082907f8be0079c531659141344cd1fd0a4f28419497f9722a3daafe3b4186f6b6457e090600090a35050565b6000826001600160a01b03168260405160006040518083038185875af1925050503d8060008114611a09576040519150601f19603f3d011682016040523d82523d6000602084013e611a0e565b606091505b5050905080610a255760405162461bcd60e51b815260206004820152601060248201526f2a3930b739b332b9103330b4b632b21760811b60448201526064016107d1565b611a5d848484611705565b611a6984848484611b8c565b6113785760405162461bcd60e51b81526004016107d19061272b565b6000818152600260205260409020546060906001600160a01b0316611abc5760405162461bcd60e51b81526004016107d19061268a565b6000611ac6611c8a565b90506000815111611ae657604051806020016040528060008152506118bc565b80611af084611c99565b604051602001611b0192919061277d565b6040516020818303038152906040529392505050565b60006001600160e01b031982166380ac58cd60e01b1480611b4857506001600160e01b03198216635b5e139f60e01b145b806107a157506301ffc9a760e01b6001600160e01b03198316146107a1565b610fc7828260405180602001604052806000815250611d97565b610a25838383611dca565b60006001600160a01b0384163b15611c7f57604051630a85bd0160e11b81526001600160a01b0385169063150b7a0290611bd09033908990889088906004016127ac565b6020604051808303816000875af1925050508015611c0b575060408051601f3d908101601f19168201909252611c08918101906127e9565b60015b611c65573d808015611c39576040519150601f19603f3d011682016040523d82523d6000602084013e611c3e565b606091505b508051611c5d5760405162461bcd60e51b81526004016107d19061272b565b805181602001fd5b6001600160e01b031916630a85bd0160e11b1490506116fd565b506001949350505050565b6060600c80546107fc9061259f565b606081611cbd5750506040805180820190915260018152600360fc1b602082015290565b8160005b8115611ce75780611cd181612657565b9150611ce09050600a8361281c565b9150611cc1565b60008167ffffffffffffffff811115611d0257611d026123bc565b6040519080825280601f01601f191660200182016040528015611d2c576020820181803683370190505b5090505b84156116fd57611d416001836126f5565b9150611d4e600a86612830565b611d59906030612672565b60f81b818381518110611d6e57611d6e61262b565b60200101906001600160f81b031916908160001a905350611d90600a8661281c565b9450611d30565b611da18383611e82565b611dae6000848484611b8c565b610a255760405162461bcd60e51b81526004016107d19061272b565b6001600160a01b038316611e2557611e2081600880546000838152600960205260408120829055600182018355919091527ff3f7a9fe364faab93b216da50a3214154f22a0a2b415b23a84c8169e8b636ee30155565b611e48565b816001600160a01b0316836001600160a01b031614611e4857611e488382611fd0565b6001600160a01b038216611e5f57610a258161206d565b826001600160a01b0316826001600160a01b031614610a2557610a25828261211c565b6001600160a01b038216611ed85760405162461bcd60e51b815260206004820181905260248201527f4552433732313a206d696e7420746f20746865207a65726f206164647265737360448201526064016107d1565b6000818152600260205260409020546001600160a01b031615611f3d5760405162461bcd60e51b815260206004820152601c60248201527f4552433732313a20746f6b656e20616c7265616479206d696e7465640000000060448201526064016107d1565b611f4960008383611b81565b6001600160a01b0382166000908152600360205260408120805460019290611f72908490612672565b909155505060008181526002602052604080822080546001600160a01b0319166001600160a01b03861690811790915590518392907fddf252ad1be2c89b69c2b068fc378daa952ba7f163c4a11628f55a4df523b3ef908290a45050565b60006001611fdd84611051565b611fe791906126f5565b60008381526007602052604090205490915080821461203a576001600160a01b03841660009081526006602090815260408083208584528252808320548484528184208190558352600790915290208190555b5060009182526007602090815260408084208490556001600160a01b039094168352600681528383209183525290812055565b60085460009061207f906001906126f5565b600083815260096020526040812054600880549394509092849081106120a7576120a761262b565b9060005260206000200154905080600883815481106120c8576120c861262b565b600091825260208083209091019290925582815260099091526040808220849055858252812055600880548061210057612100612844565b6001900381819060005260206000200160009055905550505050565b600061212783611051565b6001600160a01b039093166000908152600660209081526040808320868452825280832085905593825260079052919091209190915550565b82805461216c9061259f565b90600052602060002090601f01602090048101928261218e57600085556121d4565b82601f106121a757805160ff19168380011785556121d4565b828001600101855582156121d4579182015b828111156121d45782518255916020019190600101906121b9565b506121e09291506121e4565b5090565b5b808211156121e057600081556001016121e5565b6001600160e01b031981168114610d6a57600080fd5b60006020828403121561222157600080fd5b81356118bc816121f9565b8035801515811461223c57600080fd5b919050565b60006020828403121561225357600080fd5b6118bc8261222c565b60005b8381101561227757818101518382015260200161225f565b838111156113785750506000910152565b600081518084526122a081602086016020860161225c565b601f01601f19169290920160200192915050565b6020815260006118bc6020830184612288565b6000602082840312156122d957600080fd5b5035919050565b80356001600160a01b038116811461223c57600080fd5b6000806040838503121561230a57600080fd5b612313836122e0565b946020939093013593505050565b60006020828403121561233357600080fd5b6118bc826122e0565b60008060006060848603121561235157600080fd5b61235a846122e0565b9250612368602085016122e0565b9150604084013590509250925092565b6020808252825182820181905260009190848201906040850190845b818110156123b057835183529284019291840191600101612394565b50909695505050505050565b634e487b7160e01b600052604160045260246000fd5b600067ffffffffffffffff808411156123ed576123ed6123bc565b604051601f8501601f19908116603f01168101908282118183101715612415576124156123bc565b8160405280935085815286868601111561242e57600080fd5b858560208301376000602087830101525050509392505050565b60006020828403121561245a57600080fd5b813567ffffffffffffffff81111561247157600080fd5b8201601f8101841361248257600080fd5b6116fd848235602084016123d2565b600080604083850312156124a457600080fd5b6124ad836122e0565b91506124bb6020840161222c565b90509250929050565b600080600080608085870312156124da57600080fd5b6124e3856122e0565b93506124f1602086016122e0565b925060408501359150606085013567ffffffffffffffff81111561251457600080fd5b8501601f8101871361252557600080fd5b612534878235602084016123d2565b91505092959194509250565b6000806040838503121561255357600080fd5b61255c836122e0565b91506124bb602084016122e0565b6020808252818101527f4f776e61626c653a2063616c6c6572206973206e6f7420746865206f776e6572604082015260600190565b600181811c908216806125b357607f821691505b602082108114156125d457634e487b7160e01b600052602260045260246000fd5b50919050565b60208082526031908201527f4552433732313a207472616e736665722063616c6c6572206973206e6f74206f6040820152701ddb995c881b9bdc88185c1c1c9bdd9959607a1b606082015260800190565b634e487b7160e01b600052603260045260246000fd5b634e487b7160e01b600052601160045260246000fd5b600060001982141561266b5761266b612641565b5060010190565b6000821982111561268557612685612641565b500190565b6020808252602f908201527f4552433732314d657461646174613a2055524920717565727920666f72206e6f60408201526e3732bc34b9ba32b73a103a37b5b2b760891b606082015260800190565b600082516126eb81846020870161225c565b9190910192915050565b60008282101561270757612707612641565b500390565b600081600019048311821515161561272657612726612641565b500290565b60208082526032908201527f4552433732313a207472616e7366657220746f206e6f6e20455243373231526560408201527131b2b4bb32b91034b6b83632b6b2b73a32b960711b606082015260800190565b6000835161278f81846020880161225c565b8351908301906127a381836020880161225c565b01949350505050565b6001600160a01b03858116825284166020820152604081018390526080606082018190526000906127df90830184612288565b9695505050505050565b6000602082840312156127fb57600080fd5b81516118bc816121f9565b634e487b7160e01b600052601260045260246000fd5b60008261282b5761282b612806565b500490565b60008261283f5761283f612806565b500690565b634e487b7160e01b600052603160045260246000fdfea2646970667358221220ed462ff1661ad6fba7a280aaa7acc106db3ef21578e27f01e8ce214f692dde7d64736f6c634300080c00334f776e61626c653a2063616c6c6572206973206e6f7420746865206f776e6572",
  "immutableReferences": {},
  "source": "// SPDX-License-Identifier: MIT\r\npragma solidity ^0.8.0;\r\n\r\nimport \"./ERC721.sol\";\r\nimport \"./ERC721Enumerable.sol\";\r\nimport \"./ERC721Burnable.sol\";\r\nimport \"./Ownable.sol\";\r\nimport \"./SafeMath.sol\";\r\nimport \"./Counters.sol\";\r\n\r\ncontract AtemPassport is ERC721Enumerable, Ownable, ERC721Burnable {\r\n    using SafeMath for uint256;\r\n    using Counters for Counters.Counter;\r\n\r\n    Counters.Counter private _tokenIdTracker;\r\n\r\n    uint256 public constant MAX_ELEMENTS = 5000;\r\n    uint256 public constant PRICE = 9 * 10**16;\r\n    uint256 public constant MINIMUM_ETH_BALANCE = 3 * 10**17;\r\n    uint256 public constant MAX_BY_MINT = 15;\r\n    address public constant creatorAddress = 0xB784115f6e0d40F5f87739a83fe428BFddd4Ab55;\r\n    \r\n    string public baseTokenURI;\r\n    bool private _pause;\r\n    mapping(address => bool) public whitelist;\r\n    mapping(address => bool) public claimList;\r\n\r\n    event JoinGang(uint256 indexed id);\r\n    constructor(string memory baseURI) ERC721(\"AtemNftPassport\", \"ANP\") {\r\n        setBaseURI(baseURI);\r\n        pause(true);\r\n    }\r\n\r\n    modifier saleIsOpen {\r\n        require(_totalSupply() <= MAX_ELEMENTS, \"Sale end\");\r\n        if (_msgSender() != owner()) {\r\n            require(!_pause, \"Pausable: paused\");\r\n        }\r\n        _;\r\n    }\r\n    function _totalSupply() internal view returns (uint) {\r\n        return _tokenIdTracker.current();\r\n    }\r\n    function totalMint() public view returns (uint256) {\r\n        return _totalSupply();\r\n    }\r\n\r\n    function isPaused() public view returns (bool) {\r\n        return _pause;\r\n    }\r\n\r\n    function tokenURI(uint256 tokenId) public view virtual override returns (string memory) {\r\n        require(_exists(tokenId), \"ERC721Metadata: URI query for nonexistent token\");\r\n        return string(abi.encodePacked(super.tokenURI(tokenId), \"\"));\r\n    }\r\n    function addwhitelist(address _addr) public onlyOwner {\r\n      whitelist[_addr] = true;\r\n    }\r\n    function hasAtemNft(address _addr) public view returns (bool) {\r\n      if(balanceOf(_addr) > 0) {\r\n          return true;\r\n      }\r\n      return false;\r\n    }\r\n    function isMintable() public view returns (bool) {\r\n        require(!isPaused(), \"paused by owner\");\r\n\r\n        if(claimList[msg.sender]) {\r\n            return false;\r\n        }\r\n\r\n        address user = msg.sender;\r\n        uint256 user_ether_balance = user.balance;\r\n        \r\n        if(whitelist[user] == true) {\r\n            return true;\r\n        }\r\n        else if(user_ether_balance >= MINIMUM_ETH_BALANCE) {\r\n            return true;\r\n        }\r\n\r\n        return false;\r\n    }\r\n    function mint() public payable saleIsOpen {\r\n        uint256 total = _totalSupply();\r\n        require(total <= MAX_ELEMENTS, \"Sale end\");\r\n        require(isMintable(), \"Not allowed to mint\");\r\n        \r\n        _mintAnElement(msg.sender);\r\n        claimList[msg.sender] = true;\r\n    }\r\n    function _mintAnElement(address _to) private {\r\n        uint id = _totalSupply();\r\n        _tokenIdTracker.increment();\r\n        _safeMint(_to, id + 1);\r\n        emit JoinGang(id + 1);\r\n    }\r\n    function price(uint256 _count) public pure returns (uint256) {\r\n        return PRICE.mul(_count);\r\n    }\r\n\r\n    function _baseURI() internal view virtual override returns (string memory) {\r\n        return baseTokenURI;\r\n    }\r\n\r\n    function setBaseURI(string memory baseURI) public onlyOwner {\r\n        baseTokenURI = baseURI;\r\n    }\r\n\r\n    function walletOfOwner(address _owner) external view returns (uint256[] memory) {\r\n        uint256 tokenCount = balanceOf(_owner);\r\n\r\n        uint256[] memory tokensId = new uint256[](tokenCount);\r\n        for (uint256 i = 0; i < tokenCount; i++) {\r\n            tokensId[i] = tokenOfOwnerByIndex(_owner, i);\r\n        }\r\n\r\n        return tokensId;\r\n    }\r\n\r\n    function pause(bool val) public onlyOwner {\r\n        _pause = val;\r\n    }\r\n\r\n    function transferOwner(address newOwner) public onlyOwner {\r\n        transfer(newOwner);\r\n    }\r\n\r\n    function withdrawAll() public payable onlyOwner {\r\n        uint256 balance = address(this).balance;\r\n        require(balance > 0);\r\n        _widthdraw(creatorAddress, address(this).balance);\r\n    }\r\n\r\n    function _widthdraw(address _address, uint256 _amount) private {\r\n        (bool success, ) = _address.call{value: _amount}(\"\");\r\n        require(success, \"Transfer failed.\");\r\n    }\r\n\r\n    function _beforeTokenTransfer(\r\n        address from,\r\n        address to,\r\n        uint256 tokenId\r\n    ) internal virtual override(ERC721, ERC721Enumerable) {\r\n        super._beforeTokenTransfer(from, to, tokenId);\r\n    }\r\n\r\n    function supportsInterface(bytes4 interfaceId) public view virtual override(ERC721, ERC721Enumerable) returns (bool) {\r\n        return super.supportsInterface(interfaceId);\r\n    }\r\n\r\n    function reserve(uint256 _count) public onlyOwner {\r\n        uint256 total = _totalSupply();\r\n        require(total + _count <= 100, \"Exceeded\");\r\n        for (uint256 i = 0; i < _count; i++) {\r\n            _mintAnElement(_msgSender());\r\n        }\r\n    }\r\n    \r\n}",
  "sourcePath": "/home/ubuntu/ethereum-works/atemSmartContract/atem-nft-contract/contracts/atempassport.sol",
  "compiler": {
    "name": "solc",
    "version": "0.8.12+commit.f00d7308.Emscripten.clang"
  },
  "schemaVersion": "3.4.6",
  "updatedAt": "2022-03-14T23:10:37.696Z",
  "networkType": "ethereum",
  "devdoc": {
    "kind": "dev",
    "methods": {
      "approve(address,uint256)": {
        "details": "See {IERC721-approve}."
      },
      "balanceOf(address)": {
        "details": "See {IERC721-balanceOf}."
      },
      "burn(uint256)": {
        "details": "Burns `tokenId`. See {ERC721-_burn}. Requirements: - The caller must own `tokenId` or be an approved operator."
      },
      "getApproved(uint256)": {
        "details": "See {IERC721-getApproved}."
      },
      "isApprovedForAll(address,address)": {
        "details": "See {IERC721-isApprovedForAll}."
      },
      "name()": {
        "details": "See {IERC721Metadata-name}."
      },
      "owner()": {
        "details": "Returns the address of the current owner."
      },
      "ownerOf(uint256)": {
        "details": "See {IERC721-ownerOf}."
      },
      "renounceOwnership()": {
        "details": "Leaves the contract without owner. It will not be possible to call `onlyOwner` functions anymore. Can only be called by the current owner. NOTE: Renouncing ownership will leave the contract without an owner, thereby removing any functionality that is only available to the owner."
      },
      "safeTransferFrom(address,address,uint256)": {
        "details": "See {IERC721-safeTransferFrom}."
      },
      "safeTransferFrom(address,address,uint256,bytes)": {
        "details": "See {IERC721-safeTransferFrom}."
      },
      "setApprovalForAll(address,bool)": {
        "details": "See {IERC721-setApprovalForAll}."
      },
      "symbol()": {
        "details": "See {IERC721Metadata-symbol}."
      },
      "tokenByIndex(uint256)": {
        "details": "See {IERC721Enumerable-tokenByIndex}."
      },
      "tokenOfOwnerByIndex(address,uint256)": {
        "details": "See {IERC721Enumerable-tokenOfOwnerByIndex}."
      },
      "tokenURI(uint256)": {
        "details": "See {IERC721Metadata-tokenURI}."
      },
      "totalSupply()": {
        "details": "See {IERC721Enumerable-totalSupply}."
      },
      "transferFrom(address,address,uint256)": {
        "details": "See {IERC721-transferFrom}."
      },
      "transferOwnership(address)": {
        "details": "Transfers ownership of the contract to a new account (`newOwner`). Can only be called by the current owner."
      }
    },
    "version": 1
  },
  "userdoc": {
    "kind": "user",
    "methods": {},
    "version": 1
  }
}