{
  "contractName": "AtemPassport",
  "abi": [
    {
      "inputs": [
        {
          "internalType": "string",
          "name": "baseURI",
          "type": "string"
        }
      ],
      "stateMutability": "nonpayable",
      "type": "constructor"
    },
    {
      "anonymous": false,
      "inputs": [
        {
          "indexed": true,
          "internalType": "address",
          "name": "owner",
          "type": "address"
        },
        {
          "indexed": true,
          "internalType": "address",
          "name": "approved",
          "type": "address"
        },
        {
          "indexed": true,
          "internalType": "uint256",
          "name": "tokenId",
          "type": "uint256"
        }
      ],
      "name": "Approval",
      "type": "event"
    },
    {
      "anonymous": false,
      "inputs": [
        {
          "indexed": true,
          "internalType": "address",
          "name": "owner",
          "type": "address"
        },
        {
          "indexed": true,
          "internalType": "address",
          "name": "operator",
          "type": "address"
        },
        {
          "indexed": false,
          "internalType": "bool",
          "name": "approved",
          "type": "bool"
        }
      ],
      "name": "ApprovalForAll",
      "type": "event"
    },
    {
      "anonymous": false,
      "inputs": [
        {
          "indexed": true,
          "internalType": "uint256",
          "name": "id",
          "type": "uint256"
        }
      ],
      "name": "JoinGang",
      "type": "event"
    },
    {
      "anonymous": false,
      "inputs": [
        {
          "indexed": true,
          "internalType": "address",
          "name": "previousOwner",
          "type": "address"
        },
        {
          "indexed": true,
          "internalType": "address",
          "name": "newOwner",
          "type": "address"
        }
      ],
      "name": "OwnershipTransferred",
      "type": "event"
    },
    {
      "anonymous": false,
      "inputs": [
        {
          "indexed": true,
          "internalType": "address",
          "name": "from",
          "type": "address"
        },
        {
          "indexed": true,
          "internalType": "address",
          "name": "to",
          "type": "address"
        },
        {
          "indexed": true,
          "internalType": "uint256",
          "name": "tokenId",
          "type": "uint256"
        }
      ],
      "name": "Transfer",
      "type": "event"
    },
    {
      "inputs": [],
      "name": "MAX_BY_MINT",
      "outputs": [
        {
          "internalType": "uint256",
          "name": "",
          "type": "uint256"
        }
      ],
      "stateMutability": "view",
      "type": "function",
      "constant": true
    },
    {
      "inputs": [],
      "name": "MAX_ELEMENTS",
      "outputs": [
        {
          "internalType": "uint256",
          "name": "",
          "type": "uint256"
        }
      ],
      "stateMutability": "view",
      "type": "function",
      "constant": true
    },
    {
      "inputs": [],
      "name": "MAX_ELEMENTS_WHITELIST",
      "outputs": [
        {
          "internalType": "uint256",
          "name": "",
          "type": "uint256"
        }
      ],
      "stateMutability": "view",
      "type": "function",
      "constant": true
    },
    {
      "inputs": [],
      "name": "MINIMUM_ETH_BALANCE",
      "outputs": [
        {
          "internalType": "uint256",
          "name": "",
          "type": "uint256"
        }
      ],
      "stateMutability": "view",
      "type": "function",
      "constant": true
    },
    {
      "inputs": [],
      "name": "PRICE",
      "outputs": [
        {
          "internalType": "uint256",
          "name": "",
          "type": "uint256"
        }
      ],
      "stateMutability": "view",
      "type": "function",
      "constant": true
    },
    {
      "inputs": [
        {
          "internalType": "address",
          "name": "to",
          "type": "address"
        },
        {
          "internalType": "uint256",
          "name": "tokenId",
          "type": "uint256"
        }
      ],
      "name": "approve",
      "outputs": [],
      "stateMutability": "nonpayable",
      "type": "function"
    },
    {
      "inputs": [
        {
          "internalType": "address",
          "name": "owner",
          "type": "address"
        }
      ],
      "name": "balanceOf",
      "outputs": [
        {
          "internalType": "uint256",
          "name": "",
          "type": "uint256"
        }
      ],
      "stateMutability": "view",
      "type": "function",
      "constant": true
    },
    {
      "inputs": [],
      "name": "baseTokenURI",
      "outputs": [
        {
          "internalType": "string",
          "name": "",
          "type": "string"
        }
      ],
      "stateMutability": "view",
      "type": "function",
      "constant": true
    },
    {
      "inputs": [
        {
          "internalType": "uint256",
          "name": "tokenId",
          "type": "uint256"
        }
      ],
      "name": "burn",
      "outputs": [],
      "stateMutability": "nonpayable",
      "type": "function"
    },
    {
      "inputs": [
        {
          "internalType": "address",
          "name": "",
          "type": "address"
        }
      ],
      "name": "claimList",
      "outputs": [
        {
          "internalType": "bool",
          "name": "",
          "type": "bool"
        }
      ],
      "stateMutability": "view",
      "type": "function",
      "constant": true
    },
    {
      "inputs": [],
      "name": "creatorAddress",
      "outputs": [
        {
          "internalType": "address",
          "name": "",
          "type": "address"
        }
      ],
      "stateMutability": "view",
      "type": "function",
      "constant": true
    },
    {
      "inputs": [
        {
          "internalType": "uint256",
          "name": "tokenId",
          "type": "uint256"
        }
      ],
      "name": "getApproved",
      "outputs": [
        {
          "internalType": "address",
          "name": "",
          "type": "address"
        }
      ],
      "stateMutability": "view",
      "type": "function",
      "constant": true
    },
    {
      "inputs": [
        {
          "internalType": "address",
          "name": "owner",
          "type": "address"
        },
        {
          "internalType": "address",
          "name": "operator",
          "type": "address"
        }
      ],
      "name": "isApprovedForAll",
      "outputs": [
        {
          "internalType": "bool",
          "name": "",
          "type": "bool"
        }
      ],
      "stateMutability": "view",
      "type": "function",
      "constant": true
    },
    {
      "inputs": [],
      "name": "name",
      "outputs": [
        {
          "internalType": "string",
          "name": "",
          "type": "string"
        }
      ],
      "stateMutability": "view",
      "type": "function",
      "constant": true
    },
    {
      "inputs": [],
      "name": "owner",
      "outputs": [
        {
          "internalType": "address",
          "name": "",
          "type": "address"
        }
      ],
      "stateMutability": "view",
      "type": "function",
      "constant": true
    },
    {
      "inputs": [
        {
          "internalType": "uint256",
          "name": "tokenId",
          "type": "uint256"
        }
      ],
      "name": "ownerOf",
      "outputs": [
        {
          "internalType": "address",
          "name": "",
          "type": "address"
        }
      ],
      "stateMutability": "view",
      "type": "function",
      "constant": true
    },
    {
      "inputs": [],
      "name": "renounceOwnership",
      "outputs": [],
      "stateMutability": "nonpayable",
      "type": "function"
    },
    {
      "inputs": [
        {
          "internalType": "address",
          "name": "from",
          "type": "address"
        },
        {
          "internalType": "address",
          "name": "to",
          "type": "address"
        },
        {
          "internalType": "uint256",
          "name": "tokenId",
          "type": "uint256"
        }
      ],
      "name": "safeTransferFrom",
      "outputs": [],
      "stateMutability": "nonpayable",
      "type": "function"
    },
    {
      "inputs": [
        {
          "internalType": "address",
          "name": "from",
          "type": "address"
        },
        {
          "internalType": "address",
          "name": "to",
          "type": "address"
        },
        {
          "internalType": "uint256",
          "name": "tokenId",
          "type": "uint256"
        },
        {
          "internalType": "bytes",
          "name": "_data",
          "type": "bytes"
        }
      ],
      "name": "safeTransferFrom",
      "outputs": [],
      "stateMutability": "nonpayable",
      "type": "function"
    },
    {
      "inputs": [
        {
          "internalType": "address",
          "name": "operator",
          "type": "address"
        },
        {
          "internalType": "bool",
          "name": "approved",
          "type": "bool"
        }
      ],
      "name": "setApprovalForAll",
      "outputs": [],
      "stateMutability": "nonpayable",
      "type": "function"
    },
    {
      "inputs": [],
      "name": "symbol",
      "outputs": [
        {
          "internalType": "string",
          "name": "",
          "type": "string"
        }
      ],
      "stateMutability": "view",
      "type": "function",
      "constant": true
    },
    {
      "inputs": [
        {
          "internalType": "uint256",
          "name": "index",
          "type": "uint256"
        }
      ],
      "name": "tokenByIndex",
      "outputs": [
        {
          "internalType": "uint256",
          "name": "",
          "type": "uint256"
        }
      ],
      "stateMutability": "view",
      "type": "function",
      "constant": true
    },
    {
      "inputs": [
        {
          "internalType": "address",
          "name": "owner",
          "type": "address"
        },
        {
          "internalType": "uint256",
          "name": "index",
          "type": "uint256"
        }
      ],
      "name": "tokenOfOwnerByIndex",
      "outputs": [
        {
          "internalType": "uint256",
          "name": "",
          "type": "uint256"
        }
      ],
      "stateMutability": "view",
      "type": "function",
      "constant": true
    },
    {
      "inputs": [],
      "name": "totalSupply",
      "outputs": [
        {
          "internalType": "uint256",
          "name": "",
          "type": "uint256"
        }
      ],
      "stateMutability": "view",
      "type": "function",
      "constant": true
    },
    {
      "inputs": [
        {
          "internalType": "address",
          "name": "newOwner",
          "type": "address"
        }
      ],
      "name": "transfer",
      "outputs": [],
      "stateMutability": "nonpayable",
      "type": "function"
    },
    {
      "inputs": [
        {
          "internalType": "address",
          "name": "from",
          "type": "address"
        },
        {
          "internalType": "address",
          "name": "to",
          "type": "address"
        },
        {
          "internalType": "uint256",
          "name": "tokenId",
          "type": "uint256"
        }
      ],
      "name": "transferFrom",
      "outputs": [],
      "stateMutability": "nonpayable",
      "type": "function"
    },
    {
      "inputs": [
        {
          "internalType": "address",
          "name": "newOwner",
          "type": "address"
        }
      ],
      "name": "transferOwnership",
      "outputs": [],
      "stateMutability": "nonpayable",
      "type": "function"
    },
    {
      "inputs": [
        {
          "internalType": "address",
          "name": "",
          "type": "address"
        }
      ],
      "name": "whitelist",
      "outputs": [
        {
          "internalType": "bool",
          "name": "",
          "type": "bool"
        }
      ],
      "stateMutability": "view",
      "type": "function",
      "constant": true
    },
    {
      "inputs": [],
      "name": "getWhitelistCount",
      "outputs": [
        {
          "internalType": "uint256",
          "name": "",
          "type": "uint256"
        }
      ],
      "stateMutability": "view",
      "type": "function",
      "constant": true
    },
    {
      "inputs": [
        {
          "internalType": "address",
          "name": "_addr",
          "type": "address"
        }
      ],
      "name": "addwhitelist",
      "outputs": [],
      "stateMutability": "nonpayable",
      "type": "function"
    },
    {
      "inputs": [],
      "name": "totalMint",
      "outputs": [
        {
          "internalType": "uint256",
          "name": "",
          "type": "uint256"
        }
      ],
      "stateMutability": "view",
      "type": "function",
      "constant": true
    },
    {
      "inputs": [],
      "name": "isPaused",
      "outputs": [
        {
          "internalType": "bool",
          "name": "",
          "type": "bool"
        }
      ],
      "stateMutability": "view",
      "type": "function",
      "constant": true
    },
    {
      "inputs": [
        {
          "internalType": "uint256",
          "name": "tokenId",
          "type": "uint256"
        }
      ],
      "name": "tokenURI",
      "outputs": [
        {
          "internalType": "string",
          "name": "",
          "type": "string"
        }
      ],
      "stateMutability": "view",
      "type": "function",
      "constant": true
    },
    {
      "inputs": [
        {
          "internalType": "address",
          "name": "_addr",
          "type": "address"
        }
      ],
      "name": "hasAtemNft",
      "outputs": [
        {
          "internalType": "bool",
          "name": "",
          "type": "bool"
        }
      ],
      "stateMutability": "view",
      "type": "function",
      "constant": true
    },
    {
      "inputs": [],
      "name": "isMintable",
      "outputs": [
        {
          "internalType": "bool",
          "name": "",
          "type": "bool"
        }
      ],
      "stateMutability": "view",
      "type": "function",
      "constant": true
    },
    {
      "inputs": [],
      "name": "mint",
      "outputs": [],
      "stateMutability": "payable",
      "type": "function",
      "payable": true
    },
    {
      "inputs": [
        {
          "internalType": "uint256",
          "name": "_count",
          "type": "uint256"
        }
      ],
      "name": "price",
      "outputs": [
        {
          "internalType": "uint256",
          "name": "",
          "type": "uint256"
        }
      ],
      "stateMutability": "pure",
      "type": "function",
      "constant": true
    },
    {
      "inputs": [
        {
          "internalType": "string",
          "name": "baseURI",
          "type": "string"
        }
      ],
      "name": "setBaseURI",
      "outputs": [],
      "stateMutability": "nonpayable",
      "type": "function"
    },
    {
      "inputs": [
        {
          "internalType": "address",
          "name": "_owner",
          "type": "address"
        }
      ],
      "name": "walletOfOwner",
      "outputs": [
        {
          "internalType": "uint256[]",
          "name": "",
          "type": "uint256[]"
        }
      ],
      "stateMutability": "view",
      "type": "function",
      "constant": true
    },
    {
      "inputs": [
        {
          "internalType": "bool",
          "name": "val",
          "type": "bool"
        }
      ],
      "name": "pause",
      "outputs": [],
      "stateMutability": "nonpayable",
      "type": "function"
    },
    {
      "inputs": [
        {
          "internalType": "address",
          "name": "newOwner",
          "type": "address"
        }
      ],
      "name": "transferOwner",
      "outputs": [],
      "stateMutability": "nonpayable",
      "type": "function"
    },
    {
      "inputs": [],
      "name": "withdrawAll",
      "outputs": [],
      "stateMutability": "payable",
      "type": "function",
      "payable": true
    },
    {
      "inputs": [
        {
          "internalType": "bytes4",
          "name": "interfaceId",
          "type": "bytes4"
        }
      ],
      "name": "supportsInterface",
      "outputs": [
        {
          "internalType": "bool",
          "name": "",
          "type": "bool"
        }
      ],
      "stateMutability": "view",
      "type": "function",
      "constant": true
    },
    {
      "inputs": [
        {
          "internalType": "uint256",
          "name": "_count",
          "type": "uint256"
        }
      ],
      "name": "reserve",
      "outputs": [],
      "stateMutability": "nonpayable",
      "type": "function"
    }
  ],
  "bytecode": "0x60806040526000600e556000600f553480156200001b57600080fd5b5060405162003b9138038062003b918339810160408190526200003e9162001086565b604080518082018252600f81526e105d195b53999d14185cdcdc1bdc9d608a1b6020808301918252835180850190945260038452620414e560ec1b908401528151919291620000909160009162000fca565b508051620000a690600190602084019062000fca565b505050620000c3620000bd620000f660201b60201c565b620000fa565b620000ce816200014c565b620000da6000620001b4565b600d805461ff0019169055620000ef62000212565b50620011c6565b3390565b600a80546001600160a01b038381166001600160a01b0319831681179093556040519116919082907f8be0079c531659141344cd1fd0a4f28419497f9722a3daafe3b4186f6b6457e090600090a35050565b600a546001600160a01b031633146200019b5760405162461bcd60e51b8152602060048201819052602482015260008051602062003b7183398151915260448201526064015b60405180910390fd5b8051620001b090600c90602084019062000fca565b5050565b600a546001600160a01b03163314620001ff5760405162461bcd60e51b8152602060048201819052602482015260008051602062003b71833981519152604482015260640162000192565b600d805460ff1916911515919091179055565b600d54610100900460ff16156200026c5760405162461bcd60e51b815260206004820152601e60248201527f57686974656c69737420616c726561647920696e697469616c697a6564210000604482015260640162000192565b6200028b7371e084ab76a113727cdb1d10b0e9b1041a51ed0762000ef6565b620002aa73a25fa9f141ef211ff3ac22ad1738f9c472b3489662000ef6565b620002c973b2bcb680d243abcbffa7de5498ab55a975ea82ec62000ef6565b620002e8736922e36c987dae1787497ca2d242f4e78e57d95462000ef6565b6200030773799bb25a0dee15cc95bf3e30f0fae625c89b4af562000ef6565b62000326733a8925d66781da2ac300490ce83cd10e844f35ab62000ef6565b62000345738bca2440ffc51bad2b4b8b484b97b83c42f21fcf62000ef6565b6200036473c6da722d9159533c080432feeeb8e7c0a5658a4662000ef6565b6200038373a447838252397297a8da4c42b6cbbffe17743efc62000ef6565b620003a2731ee99c2502786a62021408c57b9bfcb20ab88a2962000ef6565b620003c173e853e70b31401dfefedb0efb130a1d19b462f3a562000ef6565b620003e0733b958ae6f6d63de991af7ce733f672df0c81348b62000ef6565b620003ff73514c4ba193c698100ddc998f17f24bdf59c7b6fb62000ef6565b6200041e733eaa45909af51e889323a4b6af1862b5d77b79ce62000ef6565b6200043d73de9a9425b3ce28f66719ea606b1d1fdda210a94d62000ef6565b6200045c738c702a9a6e0cd14a53251c630743c4f5327edde862000ef6565b6200047b7327a886862492783cb03eb0c44261809c8915ed2762000ef6565b6200049a73cb6702d9541761e51d3547e600dd58ae2ba4105262000ef6565b620004b973fb9ecc10fa880b77a92c2cd50df0fc760312fa7a62000ef6565b620004d873fe9c86d79067617174af2fc0c871092225b7151162000ef6565b620004f773da830d2d83a57cea255bcfd0cf89c3e94abde0fd62000ef6565b6200051673cb6702d9541761e51d3547e600dd58ae2ba4105262000ef6565b620005357352e78e68be7f0f38ee1e62078265bf331112949b62000ef6565b62000554731c24bc23804e5575c72df62b271c6a0b6fbbf3b362000ef6565b620005737302802fdb01f9d5d014afc00afe8c349f3b06a68862000ef6565b6200059273c71da7095111d8d1f7ccb7e58624d66a447d1fd262000ef6565b620005b173e62bcf78a4b157b10969720a44d6438c7ad99f5c62000ef6565b620005d07368e22c812c5637e846a2c9c126e94e87989a829e62000ef6565b620005ef73adfe477ca193a91deff121617eea367a319096cc62000ef6565b6200060e73b7179d22828fc2c13a0b1805ee03972378fd52f962000ef6565b6200062d73623a0f4897983dc106f601c6dc89f2deff49c71462000ef6565b6200064c73de3943be6cf95b57c032c7e9f507119cdfb71ed262000ef6565b6200066b736bcd5373208a68ad692212e103006c689e1cd14962000ef6565b6200068a739f115e2fe40b2e33d588e1fd292a7d52dfcc516362000ef6565b620006a97382960053861ea85fe646d0397dece18b8c0e3c5962000ef6565b620006c8738c702a9a6e0cd14a53251c630743c4f5327edde862000ef6565b620006e773410a0887cc91ccf1e8db56422b9a5d8b078c220062000ef6565b6200070673dc93fef5564989471d0ac9b047a95a5c8491b00262000ef6565b6200072573958bd0b0ec3d36a2b5bed6ba4a24e40e91eb789a62000ef6565b6200074473a3ea91b1071f08b90241377eb4e229eba48f38cc62000ef6565b62000763738a0456f448f58ad2135554248fb9212d4d81fa1a62000ef6565b6200078273a25f2d38cb91f53136c25e553641e341d1cbd07f62000ef6565b620007a173a5049bf5a2875188304e3c03483c96944fbf8f9462000ef6565b620007c073af4d9e13dc0f2e2d3ec0a17972db215e77c3f83c62000ef6565b620007df738d5b48934c0c408adc25f14174c7307922f6aa6062000ef6565b620007fe739d09ec3cbb97bc6571168a155cad17043ff1093d62000ef6565b6200081d73f8759f7f4762b49627e65b589c12dfcbb3bde37f62000ef6565b6200083c7357b07f71766233ff17dbb0283ec873660cdbaf8162000ef6565b6200085b73d1570080bcb784b4f5e378dfd4cdffdfd6c110f662000ef6565b6200087a739f2bfede7710490bec05c8723b072651dbfded4562000ef6565b6200089973fe38b737537065f6d9e157d8c3c639fa042382cd62000ef6565b620008b873811639e18a3c2dff9755d60b7832fa22f200a6f062000ef6565b620008d77363c24f164fa69f4db7f45f211a8e089c157b474762000ef6565b620008f6735e7c21defe711bcd5cea1b267d2e87f7913d510f62000ef6565b6200091573682c72e317cf93a36ace26d52f9eb9c41712e56c62000ef6565b620009347375ad930bacc1328acd9a6e869379efa30a3727e362000ef6565b620009537387d63b96ca7695775fdde18ade27480143f9dfa062000ef6565b6200097273e6e4b47a79d0bb2135de2f2d8466790d7a1e99a362000ef6565b6200099173f1ac2c73d2e5d30b78874552e640d48490f9fe4262000ef6565b620009b07395f50cf888dfec90321dc376c1e695f15b08159562000ef6565b620009cf735db63f987817910bbb9656b5210990408d3831fb62000ef6565b620009ee7306175bb4c2f213ff8b1e123e5f77312a47ae336462000ef6565b62000a0d73c8d60b0899fd738fcc2cf84ed1a5fcb62b9f252162000ef6565b62000a2c7325ad2667b19e866109c1a93102b816730a6aec3f62000ef6565b62000a4b7380f800c9f5cb252f4a3ea892cd1e38c299bcdcbf62000ef6565b62000a6a736d5f2fb7582b4b1d9b5ccfeba60126de7da9d02c62000ef6565b62000a89730f5994afdf8c01351a37e501cd28a961d76da66e62000ef6565b62000aa87314c798426f2bb6ac40cdebff2dc078bf56e6c34d62000ef6565b62000ac773b80aed37a3437dbbf97bf46056d009c01cf847fb62000ef6565b62000ae673de3df72601b79acec367eecc2d126bd946acb32062000ef6565b62000b05733980d2ff1323f22f38bf18894294d46f7ab1aa6d62000ef6565b62000b24733c3c0a24013f73b27eae88032c04001a2dc1277162000ef6565b62000b4373c43bc524904b7cd004ed6f7f301e09115c22cc9062000ef6565b62000b6273fa312871af0b5369c1e479ac8f4d87ce575e944362000ef6565b62000b8173beadbf314a7b17140f5964249803d649d5491c8a62000ef6565b62000ba073e7fa93f1e789870351401cc2d38a7925755cd4f262000ef6565b62000bbf7314c798426f2bb6ac40cdebff2dc078bf56e6c34d62000ef6565b62000bde737c8b7a4d00b68bfdba0db6e5ce1895cab9ac0cce62000ef6565b62000bfd738665e6a5c02ff4fcbe83d998982e4c08791b54e562000ef6565b62000c1c7308d5450a4bf45d1f8a86ef3e9ae2e618760e917c62000ef6565b62000c3b73ef3dff08edab3f21fd25bcd14a4ea9023bf0d60262000ef6565b62000c5a735eb5dca8267a4113490c87743e66d76832cee43d62000ef6565b62000c7973bd923b473d145a91ceaf12bb66a8007d1eeb1c6162000ef6565b62000c98739a7960dc84b778fa5cc1200b013eb1b71ffd1f6a62000ef6565b62000cb7739731c556a8f285fa33ff3dec4add14784b94403662000ef6565b62000cd6732b50b585cb928c6b06498229db8276e882dc3b6b62000ef6565b62000cf573fd19276756130aaabd95db2545ac54c65a09b6c462000ef6565b62000d14736588ea04ebf8c8021469b72efb1da1faf0f0023a62000ef6565b62000d337382960053861ea85fe646d0397dece18b8c0e3c5962000ef6565b62000d527387b7cf1956df30c5d216c72c894422277aaa13d662000ef6565b62000d7173da048bed40d40b1ebd9239cdf56ca0c2f018ae6562000ef6565b62000d9073c5972f891f207b7fe1bd10894a30eb013aaf353e62000ef6565b62000daf731bf555e99b9056e75f5752ebf6593c4929bf5d5062000ef6565b62000dce73216f91ce3c1cb358e583441d6179c6c19c834a2e62000ef6565b62000ded735eb5dca8267a4113490c87743e66d76832cee43d62000ef6565b62000e0c73bd923b473d145a91ceaf12bb66a8007d1eeb1c6162000ef6565b62000e2b739a7960dc84b778fa5cc1200b013eb1b71ffd1f6a62000ef6565b62000e4a73786297c4947408e01a1a977fda4db5e53a09c46162000ef6565b62000e6973ee2343f8c3efd59ea73b909809d8fa300b133dec62000ef6565b62000e8873f997558ae6ab4e5b7df35b6686becf512a50202c62000ef6565b62000ea7739bd1f59afe81c7b23517985cb7b6eca30314e6b862000ef6565b62000ec6730bd8a10088773acaa1a3f1a65fd547c8c8c3d65a62000ef6565b62000ee573e879a374fc1cc246c51ec720749a1251a86c8a9362000ef6565b600d805461ff001916610100179055565b600a546001600160a01b0316331462000f415760405162461bcd60e51b8152602060048201819052602482015260008051602062003b71833981519152604482015260640162000192565b6101f462000f4e600e5490565b1062000f905760405162461bcd60e51b815260206004820152601060248201526f57686974656c69737420656e6465642160801b604482015260640162000192565b6001600160a01b0381166000908152601060205260409020805460ff19166001908117909155600e5462000fc49162001162565b600e5550565b82805462000fd89062001189565b90600052602060002090601f01602090048101928262000ffc576000855562001047565b82601f106200101757805160ff191683800117855562001047565b8280016001018555821562001047579182015b82811115620010475782518255916020019190600101906200102a565b506200105592915062001059565b5090565b5b808211156200105557600081556001016200105a565b634e487b7160e01b600052604160045260246000fd5b600060208083850312156200109a57600080fd5b82516001600160401b0380821115620010b257600080fd5b818501915085601f830112620010c757600080fd5b815181811115620010dc57620010dc62001070565b604051601f8201601f19908116603f0116810190838211818310171562001107576200110762001070565b8160405282815288868487010111156200112057600080fd5b600093505b8284101562001144578484018601518185018701529285019262001125565b82841115620011565760008684830101525b98975050505050505050565b600082198211156200118457634e487b7160e01b600052601160045260246000fd5b500190565b600181811c908216806200119e57607f821691505b60208210811415620011c057634e487b7160e01b600052602260045260246000fd5b50919050565b61299b80620011d66000396000f3fe6080604052600436106102675760003560e01c806359a7715a116101445780639b19251a116100b6578063b88d4fde1161007a578063b88d4fde146106ea578063c87b56dd1461070a578063d547cfb71461072a578063e927fc5c1461073f578063e985e9c514610767578063f2fde38b146107b057600080fd5b80639b19251a14610646578063a22cb46514610676578063a5fbccce14610696578063ae3a5561146106b2578063b187bd26146106d257600080fd5b8063853828b611610108578063853828b6146105c15780638ad5de28146105c95780638d859f3e146105de5780638da5cb5b146105f357806394c145db1461061157806395d89b411461063157600080fd5b806359a7715a146105375780636352211e1461054c57806370a082311461056c578063715018a61461058c578063819b25ba146105a157600080fd5b80633502a716116101dd578063438b6300116101a1578063438b63001461046557806345f60e031461049257806346b45af7146104c25780634f6ccce7146104d75780634fb2e45d146104f757806355f804b31461051757600080fd5b80633502a716146103e45780633b0aa4cd146103fa5780633edff20f1461041057806342842e0e1461042557806342966c681461044557600080fd5b80631249c58b1161022f5780631249c58b1461033d57806318160ddd146103455780631a6952301461036457806323b872dd1461038457806326a49e37146103a45780632f745c59146103c457600080fd5b806301ffc9a71461026c57806302329a29146102a157806306fdde03146102c3578063081812fc146102e5578063095ea7b31461031d575b600080fd5b34801561027857600080fd5b5061028c61028736600461231a565b6107d0565b60405190151581526020015b60405180910390f35b3480156102ad57600080fd5b506102c16102bc36600461234c565b6107e1565b005b3480156102cf57600080fd5b506102d8610827565b60405161029891906123bf565b3480156102f157600080fd5b506103056103003660046123d2565b6108b9565b6040516001600160a01b039091168152602001610298565b34801561032957600080fd5b506102c1610338366004612402565b61094e565b6102c1610a64565b34801561035157600080fd5b506008545b604051908152602001610298565b34801561037057600080fd5b506102c161037f36600461242c565b610be5565b34801561039057600080fd5b506102c161039f366004612447565b610c62565b3480156103b057600080fd5b506103566103bf3660046123d2565b610c94565b3480156103d057600080fd5b506103566103df366004612402565b610ca0565b3480156103f057600080fd5b5061035661138881565b34801561040657600080fd5b506103566101f481565b34801561041c57600080fd5b50600e54610356565b34801561043157600080fd5b506102c1610440366004612447565b610d36565b34801561045157600080fd5b506102c16104603660046123d2565b610d51565b34801561047157600080fd5b5061048561048036600461242c565b610dc8565b6040516102989190612483565b34801561049e57600080fd5b5061028c6104ad36600461242c565b60116020526000908152604090205460ff1681565b3480156104ce57600080fd5b5061028c610e6a565b3480156104e357600080fd5b506103566104f23660046123d2565b610f6f565b34801561050357600080fd5b506102c161051236600461242c565b611002565b34801561052357600080fd5b506102c1610532366004612553565b611035565b34801561054357600080fd5b50610356611076565b34801561055857600080fd5b506103056105673660046123d2565b611085565b34801561057857600080fd5b5061035661058736600461242c565b6110fc565b34801561059857600080fd5b506102c1611183565b3480156105ad57600080fd5b506102c16105bc3660046123d2565b6111b9565b6102c161125a565b3480156105d557600080fd5b50610356600f81565b3480156105ea57600080fd5b50610356600081565b3480156105ff57600080fd5b50600a546001600160a01b0316610305565b34801561061d57600080fd5b5061028c61062c36600461242c565b6112ad565b34801561063d57600080fd5b506102d86112cf565b34801561065257600080fd5b5061028c61066136600461242c565b60106020526000908152604090205460ff1681565b34801561068257600080fd5b506102c161069136600461259c565b6112de565b3480156106a257600080fd5b50610356670429d069189e000081565b3480156106be57600080fd5b506102c16106cd36600461242c565b6113a3565b3480156106de57600080fd5b50600d5460ff1661028c565b3480156106f657600080fd5b506102c16107053660046125cf565b611451565b34801561071657600080fd5b506102d86107253660046123d2565b611489565b34801561073657600080fd5b506102d86114ef565b34801561074b57600080fd5b50610305732a99ae1d91654c4ea571d44f60661cca3ae2249881565b34801561077357600080fd5b5061028c61078236600461264b565b6001600160a01b03918216600090815260056020908152604080832093909416825291909152205460ff1690565b3480156107bc57600080fd5b506102c16107cb36600461242c565b61157d565b60006107db82611615565b92915050565b600a546001600160a01b031633146108145760405162461bcd60e51b815260040161080b90612675565b60405180910390fd5b600d805460ff1916911515919091179055565b606060008054610836906126aa565b80601f0160208091040260200160405190810160405280929190818152602001828054610862906126aa565b80156108af5780601f10610884576101008083540402835291602001916108af565b820191906000526020600020905b81548152906001019060200180831161089257829003601f168201915b5050505050905090565b6000818152600260205260408120546001600160a01b03166109325760405162461bcd60e51b815260206004820152602c60248201527f4552433732313a20617070726f76656420717565727920666f72206e6f6e657860448201526b34b9ba32b73a103a37b5b2b760a11b606482015260840161080b565b506000908152600460205260409020546001600160a01b031690565b600061095982611085565b9050806001600160a01b0316836001600160a01b031614156109c75760405162461bcd60e51b815260206004820152602160248201527f4552433732313a20617070726f76616c20746f2063757272656e74206f776e656044820152603960f91b606482015260840161080b565b336001600160a01b03821614806109e357506109e38133610782565b610a555760405162461bcd60e51b815260206004820152603860248201527f4552433732313a20617070726f76652063616c6c6572206973206e6f74206f7760448201527f6e6572206e6f7220617070726f76656420666f7220616c6c0000000000000000606482015260840161080b565b610a5f838361163a565b505050565b611388610a6f6116a8565b1115610aa85760405162461bcd60e51b815260206004820152600860248201526714d85b1948195b9960c21b604482015260640161080b565b600a546001600160a01b03163314610b0057600d5460ff1615610b005760405162461bcd60e51b815260206004820152601060248201526f14185d5cd8589b194e881c185d5cd95960821b604482015260640161080b565b6000610b0a6116a8565b9050611388811115610b495760405162461bcd60e51b815260206004820152600860248201526714d85b1948195b9960c21b604482015260640161080b565b610b51610e6a565b610b935760405162461bcd60e51b8152602060048201526013602482015272139bdd08185b1b1bddd959081d1bc81b5a5b9d606a1b604482015260640161080b565b610b9c336116b3565b336000908152601160209081526040808320805460ff1916600190811790915560109092529091205460ff1615151415610be257600f54610bde9060016126fb565b600f555b50565b600a546001600160a01b0316331415610c405760405162461bcd60e51b815260206004820152601860248201527f4f776e61626c653a20697420697320666f72206f776e65720000000000000000604482015260640161080b565b600a80546001600160a01b0319166001600160a01b0392909216919091179055565b610c6d335b82611719565b610c895760405162461bcd60e51b815260040161080b90612713565b610a5f838383611810565b60006107db81836119bb565b6000610cab836110fc565b8210610d0d5760405162461bcd60e51b815260206004820152602b60248201527f455243373231456e756d657261626c653a206f776e657220696e646578206f7560448201526a74206f6620626f756e647360a81b606482015260840161080b565b506001600160a01b03919091166000908152600660209081526040808320938352929052205490565b610a5f83838360405180602001604052806000815250611451565b610d5a33610c67565b610dbf5760405162461bcd60e51b815260206004820152603060248201527f4552433732314275726e61626c653a2063616c6c6572206973206e6f74206f7760448201526f1b995c881b9bdc88185c1c1c9bdd995960821b606482015260840161080b565b610be2816119ce565b60606000610dd5836110fc565b905060008167ffffffffffffffff811115610df257610df26124c7565b604051908082528060200260200182016040528015610e1b578160200160208202803683370190505b50905060005b82811015610e6257610e338582610ca0565b828281518110610e4557610e45612764565b602090810291909101015280610e5a8161277a565b915050610e21565b509392505050565b6000610e78600d5460ff1690565b15610eb75760405162461bcd60e51b815260206004820152600f60248201526e3830bab9b2b210313c9037bbb732b960891b604482015260640161080b565b33732a99ae1d91654c4ea571d44f60661cca3ae224981415610ed95750600190565b3360009081526011602052604090205460ff1615610ef75750600090565b3360008181526010602052604090205481319060ff16151560011415610f205760019250505090565b670429d069189e00008110158015610f585750610f416101f4611388612795565b600f54610f4c6116a8565b610f569190612795565b105b15610f665760019250505090565b60009250505090565b6000610f7a60085490565b8210610fdd5760405162461bcd60e51b815260206004820152602c60248201527f455243373231456e756d657261626c653a20676c6f62616c20696e646578206f60448201526b7574206f6620626f756e647360a01b606482015260840161080b565b60088281548110610ff057610ff0612764565b90600052602060002001549050919050565b600a546001600160a01b0316331461102c5760405162461bcd60e51b815260040161080b90612675565b610be281610be5565b600a546001600160a01b0316331461105f5760405162461bcd60e51b815260040161080b90612675565b805161107290600c90602084019061226b565b5050565b60006110806116a8565b905090565b6000818152600260205260408120546001600160a01b0316806107db5760405162461bcd60e51b815260206004820152602960248201527f4552433732313a206f776e657220717565727920666f72206e6f6e657869737460448201526832b73a103a37b5b2b760b91b606482015260840161080b565b60006001600160a01b0382166111675760405162461bcd60e51b815260206004820152602a60248201527f4552433732313a2062616c616e636520717565727920666f7220746865207a65604482015269726f206164647265737360b01b606482015260840161080b565b506001600160a01b031660009081526003602052604090205490565b600a546001600160a01b031633146111ad5760405162461bcd60e51b815260040161080b90612675565b6111b76000611a75565b565b600a546001600160a01b031633146111e35760405162461bcd60e51b815260040161080b90612675565b60006111ed6116a8565b905060646111fb83836126fb565b11156112345760405162461bcd60e51b8152602060048201526008602482015267115e18d95959195960c21b604482015260640161080b565b60005b82811015610a5f57611248336116b3565b806112528161277a565b915050611237565b600a546001600160a01b031633146112845760405162461bcd60e51b815260040161080b90612675565b478061128f57600080fd5b610be2732a99ae1d91654c4ea571d44f60661cca3ae2249847611ac7565b6000806112b9836110fc565b11156112c757506001919050565b506000919050565b606060018054610836906126aa565b6001600160a01b0382163314156113375760405162461bcd60e51b815260206004820152601960248201527f4552433732313a20617070726f766520746f2063616c6c657200000000000000604482015260640161080b565b3360008181526005602090815260408083206001600160a01b03871680855290835292819020805460ff191686151590811790915590519081529192917f17307eab39ab6107e8899845ad3d59bd9653f200f220920489ca2b5937696c31910160405180910390a35050565b600a546001600160a01b031633146113cd5760405162461bcd60e51b815260040161080b90612675565b6101f46113d9600e5490565b106114195760405162461bcd60e51b815260206004820152601060248201526f57686974656c69737420656e6465642160801b604482015260640161080b565b6001600160a01b0381166000908152601060205260409020805460ff19166001908117909155600e5461144b916126fb565b600e5550565b61145b3383611719565b6114775760405162461bcd60e51b815260040161080b90612713565b61148384848484611b5d565b50505050565b6000818152600260205260409020546060906001600160a01b03166114c05760405162461bcd60e51b815260040161080b906127ac565b6114c982611b90565b6040516020016114d991906127fb565b6040516020818303038152906040529050919050565b600c80546114fc906126aa565b80601f0160208091040260200160405190810160405280929190818152602001828054611528906126aa565b80156115755780601f1061154a57610100808354040283529160200191611575565b820191906000526020600020905b81548152906001019060200180831161155857829003601f168201915b505050505081565b600a546001600160a01b031633146115a75760405162461bcd60e51b815260040161080b90612675565b6001600160a01b03811661160c5760405162461bcd60e51b815260206004820152602660248201527f4f776e61626c653a206e6577206f776e657220697320746865207a65726f206160448201526564647265737360d01b606482015260840161080b565b610be281611a75565b60006001600160e01b0319821663780e9d6360e01b14806107db57506107db82611c22565b600081815260046020526040902080546001600160a01b0319166001600160a01b038416908117909155819061166f82611085565b6001600160a01b03167f8c5be1e5ebec7d5bd14f71427d1e84f3dd0314c0f7b2291e5b200ac8c7c3b92560405160405180910390a45050565b6000611080600b5490565b60006116bd6116a8565b90506116cd600b80546001019055565b6116e1826116dc8360016126fb565b611c72565b6116ec8160016126fb565b6040517f03b1c9b32562094329652d498e9050eee8ec111908984c08387b58027efdd5e490600090a25050565b6000818152600260205260408120546001600160a01b03166117925760405162461bcd60e51b815260206004820152602c60248201527f4552433732313a206f70657261746f7220717565727920666f72206e6f6e657860448201526b34b9ba32b73a103a37b5b2b760a11b606482015260840161080b565b600061179d83611085565b9050806001600160a01b0316846001600160a01b031614806117d85750836001600160a01b03166117cd846108b9565b6001600160a01b0316145b8061180857506001600160a01b0380821660009081526005602090815260408083209388168352929052205460ff165b949350505050565b826001600160a01b031661182382611085565b6001600160a01b03161461188b5760405162461bcd60e51b815260206004820152602960248201527f4552433732313a207472616e73666572206f6620746f6b656e2074686174206960448201526839903737ba1037bbb760b91b606482015260840161080b565b6001600160a01b0382166118ed5760405162461bcd60e51b8152602060048201526024808201527f4552433732313a207472616e7366657220746f20746865207a65726f206164646044820152637265737360e01b606482015260840161080b565b6118f8838383611c8c565b61190360008261163a565b6001600160a01b038316600090815260036020526040812080546001929061192c908490612795565b90915550506001600160a01b038216600090815260036020526040812080546001929061195a9084906126fb565b909155505060008181526002602052604080822080546001600160a01b0319166001600160a01b0386811691821790925591518493918716917fddf252ad1be2c89b69c2b068fc378daa952ba7f163c4a11628f55a4df523b3ef91a4505050565b60006119c78284612817565b9392505050565b60006119d982611085565b90506119e781600084611c8c565b6119f260008361163a565b6001600160a01b0381166000908152600360205260408120805460019290611a1b908490612795565b909155505060008281526002602052604080822080546001600160a01b0319169055518391906001600160a01b038416907fddf252ad1be2c89b69c2b068fc378daa952ba7f163c4a11628f55a4df523b3ef908390a45050565b600a80546001600160a01b038381166001600160a01b0319831681179093556040519116919082907f8be0079c531659141344cd1fd0a4f28419497f9722a3daafe3b4186f6b6457e090600090a35050565b6000826001600160a01b03168260405160006040518083038185875af1925050503d8060008114611b14576040519150601f19603f3d011682016040523d82523d6000602084013e611b19565b606091505b5050905080610a5f5760405162461bcd60e51b815260206004820152601060248201526f2a3930b739b332b9103330b4b632b21760811b604482015260640161080b565b611b68848484611810565b611b7484848484611c97565b6114835760405162461bcd60e51b815260040161080b90612836565b6000818152600260205260409020546060906001600160a01b0316611bc75760405162461bcd60e51b815260040161080b906127ac565b6000611bd1611d95565b90506000815111611bf157604051806020016040528060008152506119c7565b80611bfb84611da4565b604051602001611c0c929190612888565b6040516020818303038152906040529392505050565b60006001600160e01b031982166380ac58cd60e01b1480611c5357506001600160e01b03198216635b5e139f60e01b145b806107db57506301ffc9a760e01b6001600160e01b03198316146107db565b611072828260405180602001604052806000815250611ea2565b610a5f838383611ed5565b60006001600160a01b0384163b15611d8a57604051630a85bd0160e11b81526001600160a01b0385169063150b7a0290611cdb9033908990889088906004016128b7565b6020604051808303816000875af1925050508015611d16575060408051601f3d908101601f19168201909252611d13918101906128f4565b60015b611d70573d808015611d44576040519150601f19603f3d011682016040523d82523d6000602084013e611d49565b606091505b508051611d685760405162461bcd60e51b815260040161080b90612836565b805181602001fd5b6001600160e01b031916630a85bd0160e11b149050611808565b506001949350505050565b6060600c8054610836906126aa565b606081611dc85750506040805180820190915260018152600360fc1b602082015290565b8160005b8115611df25780611ddc8161277a565b9150611deb9050600a83612927565b9150611dcc565b60008167ffffffffffffffff811115611e0d57611e0d6124c7565b6040519080825280601f01601f191660200182016040528015611e37576020820181803683370190505b5090505b841561180857611e4c600183612795565b9150611e59600a8661293b565b611e649060306126fb565b60f81b818381518110611e7957611e79612764565b60200101906001600160f81b031916908160001a905350611e9b600a86612927565b9450611e3b565b611eac8383611f8d565b611eb96000848484611c97565b610a5f5760405162461bcd60e51b815260040161080b90612836565b6001600160a01b038316611f3057611f2b81600880546000838152600960205260408120829055600182018355919091527ff3f7a9fe364faab93b216da50a3214154f22a0a2b415b23a84c8169e8b636ee30155565b611f53565b816001600160a01b0316836001600160a01b031614611f5357611f5383826120db565b6001600160a01b038216611f6a57610a5f81612178565b826001600160a01b0316826001600160a01b031614610a5f57610a5f8282612227565b6001600160a01b038216611fe35760405162461bcd60e51b815260206004820181905260248201527f4552433732313a206d696e7420746f20746865207a65726f2061646472657373604482015260640161080b565b6000818152600260205260409020546001600160a01b0316156120485760405162461bcd60e51b815260206004820152601c60248201527f4552433732313a20746f6b656e20616c7265616479206d696e74656400000000604482015260640161080b565b61205460008383611c8c565b6001600160a01b038216600090815260036020526040812080546001929061207d9084906126fb565b909155505060008181526002602052604080822080546001600160a01b0319166001600160a01b03861690811790915590518392907fddf252ad1be2c89b69c2b068fc378daa952ba7f163c4a11628f55a4df523b3ef908290a45050565b600060016120e8846110fc565b6120f29190612795565b600083815260076020526040902054909150808214612145576001600160a01b03841660009081526006602090815260408083208584528252808320548484528184208190558352600790915290208190555b5060009182526007602090815260408084208490556001600160a01b039094168352600681528383209183525290812055565b60085460009061218a90600190612795565b600083815260096020526040812054600880549394509092849081106121b2576121b2612764565b9060005260206000200154905080600883815481106121d3576121d3612764565b600091825260208083209091019290925582815260099091526040808220849055858252812055600880548061220b5761220b61294f565b6001900381819060005260206000200160009055905550505050565b6000612232836110fc565b6001600160a01b039093166000908152600660209081526040808320868452825280832085905593825260079052919091209190915550565b828054612277906126aa565b90600052602060002090601f01602090048101928261229957600085556122df565b82601f106122b257805160ff19168380011785556122df565b828001600101855582156122df579182015b828111156122df5782518255916020019190600101906122c4565b506122eb9291506122ef565b5090565b5b808211156122eb57600081556001016122f0565b6001600160e01b031981168114610be257600080fd5b60006020828403121561232c57600080fd5b81356119c781612304565b8035801515811461234757600080fd5b919050565b60006020828403121561235e57600080fd5b6119c782612337565b60005b8381101561238257818101518382015260200161236a565b838111156114835750506000910152565b600081518084526123ab816020860160208601612367565b601f01601f19169290920160200192915050565b6020815260006119c76020830184612393565b6000602082840312156123e457600080fd5b5035919050565b80356001600160a01b038116811461234757600080fd5b6000806040838503121561241557600080fd5b61241e836123eb565b946020939093013593505050565b60006020828403121561243e57600080fd5b6119c7826123eb565b60008060006060848603121561245c57600080fd5b612465846123eb565b9250612473602085016123eb565b9150604084013590509250925092565b6020808252825182820181905260009190848201906040850190845b818110156124bb5783518352928401929184019160010161249f565b50909695505050505050565b634e487b7160e01b600052604160045260246000fd5b600067ffffffffffffffff808411156124f8576124f86124c7565b604051601f8501601f19908116603f01168101908282118183101715612520576125206124c7565b8160405280935085815286868601111561253957600080fd5b858560208301376000602087830101525050509392505050565b60006020828403121561256557600080fd5b813567ffffffffffffffff81111561257c57600080fd5b8201601f8101841361258d57600080fd5b611808848235602084016124dd565b600080604083850312156125af57600080fd5b6125b8836123eb565b91506125c660208401612337565b90509250929050565b600080600080608085870312156125e557600080fd5b6125ee856123eb565b93506125fc602086016123eb565b925060408501359150606085013567ffffffffffffffff81111561261f57600080fd5b8501601f8101871361263057600080fd5b61263f878235602084016124dd565b91505092959194509250565b6000806040838503121561265e57600080fd5b612667836123eb565b91506125c6602084016123eb565b6020808252818101527f4f776e61626c653a2063616c6c6572206973206e6f7420746865206f776e6572604082015260600190565b600181811c908216806126be57607f821691505b602082108114156126df57634e487b7160e01b600052602260045260246000fd5b50919050565b634e487b7160e01b600052601160045260246000fd5b6000821982111561270e5761270e6126e5565b500190565b60208082526031908201527f4552433732313a207472616e736665722063616c6c6572206973206e6f74206f6040820152701ddb995c881b9bdc88185c1c1c9bdd9959607a1b606082015260800190565b634e487b7160e01b600052603260045260246000fd5b600060001982141561278e5761278e6126e5565b5060010190565b6000828210156127a7576127a76126e5565b500390565b6020808252602f908201527f4552433732314d657461646174613a2055524920717565727920666f72206e6f60408201526e3732bc34b9ba32b73a103a37b5b2b760891b606082015260800190565b6000825161280d818460208701612367565b9190910192915050565b6000816000190483118215151615612831576128316126e5565b500290565b60208082526032908201527f4552433732313a207472616e7366657220746f206e6f6e20455243373231526560408201527131b2b4bb32b91034b6b83632b6b2b73a32b960711b606082015260800190565b6000835161289a818460208801612367565b8351908301906128ae818360208801612367565b01949350505050565b6001600160a01b03858116825284166020820152604081018390526080606082018190526000906128ea90830184612393565b9695505050505050565b60006020828403121561290657600080fd5b81516119c781612304565b634e487b7160e01b600052601260045260246000fd5b60008261293657612936612911565b500490565b60008261294a5761294a612911565b500690565b634e487b7160e01b600052603160045260246000fdfea26469706673582212201bec578b4f031f50298171bb0bdc3fe84e3db3f939b9e4de58d784a645e97dee64736f6c634300080c00334f776e61626c653a2063616c6c6572206973206e6f7420746865206f776e6572",
  "immutableReferences": {},
  "source": "// SPDX-License-Identifier: MIT\r\npragma solidity ^0.8.0;\r\n\r\nimport \"./ERC721.sol\";\r\nimport \"./ERC721Enumerable.sol\";\r\nimport \"./ERC721Burnable.sol\";\r\nimport \"./Ownable.sol\";\r\nimport \"./SafeMath.sol\";\r\nimport \"./Counters.sol\";\r\n\r\ncontract AtemPassport is ERC721Enumerable, Ownable, ERC721Burnable {\r\n    using SafeMath for uint256;\r\n    using Counters for Counters.Counter;\r\n\r\n    Counters.Counter private _tokenIdTracker;\r\n\r\n    uint256 public constant MAX_ELEMENTS = 5000;\r\n    uint256 public constant MAX_ELEMENTS_WHITELIST = 500;\r\n    uint256 public constant PRICE = 0;\r\n    uint256 public constant MINIMUM_ETH_BALANCE = 3 * 10**17;\r\n    uint256 public constant MAX_BY_MINT = 15;\r\n    address public constant creatorAddress = 0x2a99AE1d91654c4Ea571d44F60661cCA3AE22498;\r\n    \r\n    string public baseTokenURI;\r\n    bool private _pause;\r\n    bool private _init_whitelist;\r\n    uint256 private _whitelist_count = 0;\r\n    uint256 private _whitelist_minted_count = 0;\r\n\r\n    mapping(address => bool) public whitelist;\r\n    mapping(address => bool) public claimList;\r\n\r\n    event JoinGang(uint256 indexed id);\r\n    constructor(string memory baseURI) ERC721(\"AtemNftPassport\", \"ANP\") {\r\n        setBaseURI(baseURI);\r\n        pause(false);\r\n        _init_whitelist = false;\r\n        _initwhitelist();\r\n    }\r\n    function getWhitelistCount() public view returns (uint256) {\r\n        return _whitelist_count;\r\n    }\r\n    function addwhitelist(address _addr) public onlyOwner {\r\n        require(getWhitelistCount() < MAX_ELEMENTS_WHITELIST, \"Whitelist ended!\");\r\n        whitelist[_addr] = true;\r\n        _whitelist_count = _whitelist_count + 1;\r\n\r\n    }\r\n    function _initwhitelist() private {\r\n        require(!_init_whitelist, \"Whitelist already initialized!\");\r\n\r\n        // Team\r\n        addwhitelist(0x71E084AB76a113727cdB1d10B0e9B1041a51eD07);\r\n        addwhitelist(0xa25FA9F141Ef211ff3AC22Ad1738F9c472b34896);\r\n        addwhitelist(0xb2BcB680D243aBCBFfA7dE5498Ab55a975EA82eC);\r\n        addwhitelist(0x6922E36C987daE1787497cA2d242F4e78E57d954);\r\n        addwhitelist(0x799bb25A0dee15cc95BF3E30F0fAE625c89b4AF5);\r\n        addwhitelist(0x3A8925D66781Da2ac300490cE83cD10e844f35aB);\r\n        addwhitelist(0x8bca2440FFC51BAd2b4B8b484B97B83C42f21fcf);\r\n        addwhitelist(0xc6dA722D9159533C080432feeeb8e7C0a5658a46);\r\n        addwhitelist(0xa447838252397297a8da4C42b6CbbFfe17743EFC);\r\n        addwhitelist(0x1EE99C2502786A62021408C57b9bFcb20aB88a29);\r\n        addwhitelist(0xe853E70B31401dfEFeDb0EfB130a1d19b462f3a5);\r\n        addwhitelist(0x3B958ae6F6d63De991af7cE733F672df0C81348b);\r\n        addwhitelist(0x514c4BA193c698100DdC998F17F24bDF59c7b6fB);\r\n        addwhitelist(0x3eAa45909af51E889323a4B6AF1862B5d77b79ce);\r\n\r\n        // Referal\r\n        addwhitelist(0xDe9a9425b3CE28f66719eA606B1d1FDda210A94d);\r\n        addwhitelist(0x8C702A9a6e0cd14a53251C630743c4F5327eddE8);\r\n\r\n        // Campaign\r\n        addwhitelist(0x27a886862492783cB03eb0c44261809C8915ed27);\r\n        addwhitelist(0xcB6702d9541761E51d3547e600Dd58ae2ba41052);\r\n        addwhitelist(0xfB9ecC10FA880B77A92C2CD50DF0fc760312fa7A);\r\n        addwhitelist(0xfe9C86d79067617174af2fc0C871092225b71511);\r\n        addwhitelist(0xDa830d2D83A57Cea255bCfD0Cf89C3e94Abde0FD);\r\n        addwhitelist(0xcB6702d9541761E51d3547e600Dd58ae2ba41052);\r\n\r\n        // Applicants\r\n        addwhitelist(0x52E78e68Be7F0F38eE1e62078265bf331112949B);\r\n        addwhitelist(0x1C24bC23804e5575c72dF62B271C6a0b6FbbF3B3);\r\n        addwhitelist(0x02802fdb01F9D5d014aFc00AFE8C349f3b06a688);\r\n        addwhitelist(0xC71DA7095111d8D1F7CCB7e58624d66a447d1Fd2);\r\n        addwhitelist(0xe62BCf78a4b157b10969720A44d6438c7aD99F5c);\r\n        addwhitelist(0x68e22c812C5637E846a2c9c126E94E87989A829e);\r\n        addwhitelist(0xAdfE477Ca193a91DEff121617eea367a319096cc);\r\n        addwhitelist(0xB7179D22828fc2C13a0b1805ee03972378fd52F9);\r\n        addwhitelist(0x623A0f4897983Dc106F601c6dC89f2Deff49C714);\r\n        // addwhitelist(0x141721f4d7fd95541396e74266ff272502ec8899);\r\n        addwhitelist(0xDe3943BE6CF95B57C032C7e9F507119CdFb71ed2);\r\n        addwhitelist(0x6BcD5373208a68Ad692212E103006C689e1Cd149);\r\n        addwhitelist(0x9f115e2Fe40B2E33d588E1fd292A7D52dFCc5163);\r\n        addwhitelist(0x82960053861eA85FE646d0397DeCE18B8C0e3c59);\r\n        addwhitelist(0x8C702A9a6e0cd14a53251C630743c4F5327eddE8);\r\n        addwhitelist(0x410a0887cC91cCf1e8Db56422b9a5D8B078c2200);\r\n        addwhitelist(0xDc93fEF5564989471d0AC9b047a95A5c8491b002);\r\n        addwhitelist(0x958bD0B0EC3D36a2B5BED6bA4A24e40E91Eb789A);\r\n        addwhitelist(0xa3EA91b1071F08B90241377eB4E229EBA48f38CC);\r\n        addwhitelist(0x8A0456f448f58AD2135554248FB9212D4D81fa1A);\r\n        addwhitelist(0xA25f2D38cB91F53136C25E553641E341D1cbd07f);\r\n        addwhitelist(0xa5049BF5a2875188304E3c03483c96944fbf8f94);\r\n        addwhitelist(0xAF4D9E13dC0F2E2d3Ec0a17972dB215E77c3F83C);\r\n        addwhitelist(0x8D5b48934c0C408ADC25F14174c7307922F6Aa60);\r\n        addwhitelist(0x9d09Ec3CBb97Bc6571168A155cAd17043Ff1093D);\r\n        addwhitelist(0xF8759f7F4762B49627E65B589C12dfCbb3BDE37F);\r\n        addwhitelist(0x57b07f71766233Ff17dBb0283eC873660cDBaf81);\r\n        addwhitelist(0xD1570080bcB784b4F5E378dfd4cDfFDfd6C110f6);\r\n        addwhitelist(0x9F2bfede7710490BeC05c8723B072651dBfdEd45);\r\n        addwhitelist(0xfE38b737537065F6D9e157d8c3C639Fa042382Cd);\r\n        addwhitelist(0x811639E18a3C2dFF9755D60b7832fa22F200a6f0);\r\n        addwhitelist(0x63c24F164Fa69f4dB7f45F211a8e089c157B4747);\r\n        addwhitelist(0x5e7C21DefE711bCd5CEa1B267d2e87F7913D510F);\r\n        addwhitelist(0x682c72e317Cf93A36Ace26d52f9eB9c41712e56C);\r\n        addwhitelist(0x75aD930bACC1328acD9A6e869379efa30a3727E3);\r\n        addwhitelist(0x87d63B96ca7695775fddE18ADE27480143F9dfA0);\r\n        addwhitelist(0xe6E4b47a79d0Bb2135DE2F2D8466790D7a1e99A3);\r\n        addwhitelist(0xF1aC2C73D2e5d30b78874552E640D48490f9fe42);\r\n        addwhitelist(0x95F50Cf888dFeC90321dC376c1E695F15B081595);\r\n        addwhitelist(0x5db63f987817910Bbb9656B5210990408d3831fB);\r\n        addwhitelist(0x06175bB4c2F213FF8B1e123e5f77312a47aE3364);\r\n        addwhitelist(0xc8d60B0899fd738FcC2cF84ED1A5fcB62b9f2521);\r\n        addwhitelist(0x25aD2667B19e866109c1a93102b816730a6Aec3f);\r\n        addwhitelist(0x80f800c9f5cB252f4a3ea892cd1E38c299bCdcbF);\r\n        addwhitelist(0x6D5F2Fb7582B4b1d9b5ccfEbA60126dE7Da9D02C);\r\n        addwhitelist(0x0F5994afdF8C01351A37e501Cd28A961D76Da66e);\r\n\r\n        // Community Leo\r\n        addwhitelist(0x14c798426f2Bb6ac40CDeBFf2Dc078bF56e6C34d);\r\n        addwhitelist(0xB80aED37a3437DBbf97BF46056d009C01cf847Fb);\r\n        addwhitelist(0xdE3df72601b79acec367eECc2d126BD946ACB320);\r\n        addwhitelist(0x3980d2fF1323f22f38bf18894294d46F7ab1aa6d);\r\n        addwhitelist(0x3c3C0A24013f73b27eAE88032C04001A2dC12771);\r\n        // addwhitelist(0x58db6b78d60babd5ec5b1b3759029d4ed70cb728);\r\n        // addwhitelist(0x598de2667e561bbee88b6e779de46a4cab0e5ccb);\r\n        addwhitelist(0xC43BC524904B7CD004ED6F7F301e09115c22cc90);\r\n        addwhitelist(0xFA312871af0b5369c1e479ac8f4D87CE575e9443);\r\n        addwhitelist(0xbEadbf314A7B17140f5964249803d649D5491C8A);\r\n        addwhitelist(0xe7FA93f1E789870351401cc2d38A7925755cD4f2);\r\n        // addwhitelist(0x5d2c96f66eb8d8fa69b2408122e30bfa991570af);\r\n        addwhitelist(0x14c798426f2Bb6ac40CDeBFf2Dc078bF56e6C34d);\r\n        addwhitelist(0x7C8b7A4d00B68bFDbA0db6e5Ce1895cAB9AC0CcE);\r\n        addwhitelist(0x8665E6A5c02FF4fCbE83d998982E4c08791b54e5);\r\n        addwhitelist(0x08D5450A4Bf45d1F8a86Ef3E9Ae2E618760E917C);\r\n        addwhitelist(0xef3DFf08EdAB3f21fD25bCd14a4ea9023BF0d602);\r\n        addwhitelist(0x5EB5dca8267a4113490c87743e66D76832CEE43d);\r\n        addwhitelist(0xBd923B473D145A91cEAf12BB66a8007d1eEb1C61);\r\n        addwhitelist(0x9a7960DC84b778Fa5cc1200b013eB1B71FFD1f6a);\r\n        // addwhitelist(0x5d2c96f66eb8d8fa69b2408122e30bfa991570af);\r\n        addwhitelist(0x9731c556A8F285fA33Ff3dec4aDd14784b944036);\r\n        addwhitelist(0x2B50b585cb928c6b06498229db8276e882DC3B6B);\r\n        addwhitelist(0xFd19276756130aAabD95DB2545Ac54c65A09B6C4);\r\n\r\n        // Community Eric\r\n        addwhitelist(0x6588eA04ebf8C8021469B72eFb1da1Faf0F0023A);\r\n        addwhitelist(0x82960053861eA85FE646d0397DeCE18B8C0e3c59);\r\n        addwhitelist(0x87B7Cf1956df30C5D216C72c894422277aAA13d6);\r\n        addwhitelist(0xDA048BED40d40B1EBd9239Cdf56ca0c2F018ae65);\r\n        addwhitelist(0xC5972F891f207B7Fe1bd10894A30Eb013aAF353E);\r\n        addwhitelist(0x1BF555E99b9056e75F5752EBF6593C4929BF5d50);\r\n        addwhitelist(0x216f91Ce3c1CB358E583441d6179c6c19c834A2E);\r\n        addwhitelist(0x5EB5dca8267a4113490c87743e66D76832CEE43d);\r\n        addwhitelist(0xBd923B473D145A91cEAf12BB66a8007d1eEb1C61);\r\n        addwhitelist(0x9a7960DC84b778Fa5cc1200b013eB1B71FFD1f6a);\r\n        addwhitelist(0x786297c4947408E01A1a977FDa4dB5E53A09c461);\r\n        addwhitelist(0xeE2343f8C3efd59ea73b909809d8fA300B133dEC);\r\n        addwhitelist(0xf997558AE6aB4e5b7DF35B6686becf512A50202c);\r\n        addwhitelist(0x9bD1F59AFe81c7b23517985CB7B6eca30314e6b8);\r\n\r\n        // NFT Creators\r\n        addwhitelist(0x0bd8a10088773ACaa1a3F1a65fd547c8C8C3d65A);\r\n        addwhitelist(0xE879a374Fc1cC246c51EC720749A1251a86c8a93);\r\n    \r\n        _init_whitelist = true;\r\n    }\r\n\r\n\r\n    modifier saleIsOpen {\r\n        require(_totalSupply() <= MAX_ELEMENTS, \"Sale end\");\r\n        if (_msgSender() != owner()) {\r\n            require(!_pause, \"Pausable: paused\");\r\n        }\r\n        _;\r\n    }\r\n    function _totalSupply() internal view returns (uint) {\r\n        return _tokenIdTracker.current();\r\n    }\r\n    function totalMint() public view returns (uint256) {\r\n        return _totalSupply();\r\n    }\r\n\r\n    function isPaused() public view returns (bool) {\r\n        return _pause;\r\n    }\r\n\r\n    function tokenURI(uint256 tokenId) public view virtual override returns (string memory) {\r\n        require(_exists(tokenId), \"ERC721Metadata: URI query for nonexistent token\");\r\n        return string(abi.encodePacked(super.tokenURI(tokenId), \"\"));\r\n    }\r\n    \r\n    function hasAtemNft(address _addr) public view returns (bool) {\r\n      if(balanceOf(_addr) > 0) {\r\n          return true;\r\n      }\r\n      return false;\r\n    }\r\n    function isMintable() public view returns (bool) {\r\n        require(!isPaused(), \"paused by owner\");\r\n        if(msg.sender == creatorAddress) {\r\n            return true;\r\n        }\r\n\r\n        if(claimList[msg.sender]) {\r\n            return false;\r\n        }\r\n\r\n        address user = msg.sender;\r\n        uint256 user_ether_balance = user.balance;\r\n        \r\n        if(whitelist[user] == true) {\r\n            return true;\r\n        }\r\n        else if(user_ether_balance >= MINIMUM_ETH_BALANCE && _totalSupply() - _whitelist_minted_count < MAX_ELEMENTS - MAX_ELEMENTS_WHITELIST) {\r\n            return true;\r\n        }\r\n\r\n        return false;\r\n    }\r\n    function mint() public payable saleIsOpen {\r\n        uint256 total = _totalSupply();\r\n        require(total <= MAX_ELEMENTS, \"Sale end\");\r\n        require(isMintable(), \"Not allowed to mint\");\r\n        \r\n        _mintAnElement(msg.sender);\r\n        claimList[msg.sender] = true;\r\n\r\n        if(whitelist[msg.sender] == true) {\r\n            _whitelist_minted_count = _whitelist_minted_count + 1;\r\n        }\r\n    }\r\n    function _mintAnElement(address _to) private {\r\n        uint id = _totalSupply();\r\n        _tokenIdTracker.increment();\r\n        _safeMint(_to, id + 1);\r\n        emit JoinGang(id + 1);\r\n    }\r\n    function price(uint256 _count) public pure returns (uint256) {\r\n        return PRICE.mul(_count);\r\n    }\r\n\r\n    function _baseURI() internal view virtual override returns (string memory) {\r\n        return baseTokenURI;\r\n    }\r\n\r\n    function setBaseURI(string memory baseURI) public onlyOwner {\r\n        baseTokenURI = baseURI;\r\n    }\r\n\r\n    function walletOfOwner(address _owner) external view returns (uint256[] memory) {\r\n        uint256 tokenCount = balanceOf(_owner);\r\n\r\n        uint256[] memory tokensId = new uint256[](tokenCount);\r\n        for (uint256 i = 0; i < tokenCount; i++) {\r\n            tokensId[i] = tokenOfOwnerByIndex(_owner, i);\r\n        }\r\n\r\n        return tokensId;\r\n    }\r\n\r\n    function pause(bool val) public onlyOwner {\r\n        _pause = val;\r\n    }\r\n\r\n    function transferOwner(address newOwner) public onlyOwner {\r\n        transfer(newOwner);\r\n    }\r\n\r\n    function withdrawAll() public payable onlyOwner {\r\n        uint256 balance = address(this).balance;\r\n        require(balance > 0);\r\n        _widthdraw(creatorAddress, address(this).balance);\r\n    }\r\n\r\n    function _widthdraw(address _address, uint256 _amount) private {\r\n        (bool success, ) = _address.call{value: _amount}(\"\");\r\n        require(success, \"Transfer failed.\");\r\n    }\r\n\r\n    function _beforeTokenTransfer(\r\n        address from,\r\n        address to,\r\n        uint256 tokenId\r\n    ) internal virtual override(ERC721, ERC721Enumerable) {\r\n        super._beforeTokenTransfer(from, to, tokenId);\r\n    }\r\n\r\n    function supportsInterface(bytes4 interfaceId) public view virtual override(ERC721, ERC721Enumerable) returns (bool) {\r\n        return super.supportsInterface(interfaceId);\r\n    }\r\n\r\n    function reserve(uint256 _count) public onlyOwner {\r\n        uint256 total = _totalSupply();\r\n        require(total + _count <= 100, \"Exceeded\");\r\n        for (uint256 i = 0; i < _count; i++) {\r\n            _mintAnElement(_msgSender());\r\n        }\r\n    }\r\n    \r\n}",
  "sourcePath": "/home/ubuntu/ethereum-works/atemSmartContract/atem-nft-contract/contracts/atempassport.sol",
  "compiler": {
    "name": "solc",
    "version": "0.8.12+commit.f00d7308.Emscripten.clang"
  },
  "schemaVersion": "3.4.6",
  "updatedAt": "2022-03-15T19:28:49.643Z",
  "networkType": "ethereum",
  "devdoc": {
    "kind": "dev",
    "methods": {
      "approve(address,uint256)": {
        "details": "See {IERC721-approve}."
      },
      "balanceOf(address)": {
        "details": "See {IERC721-balanceOf}."
      },
      "burn(uint256)": {
        "details": "Burns `tokenId`. See {ERC721-_burn}. Requirements: - The caller must own `tokenId` or be an approved operator."
      },
      "getApproved(uint256)": {
        "details": "See {IERC721-getApproved}."
      },
      "isApprovedForAll(address,address)": {
        "details": "See {IERC721-isApprovedForAll}."
      },
      "name()": {
        "details": "See {IERC721Metadata-name}."
      },
      "owner()": {
        "details": "Returns the address of the current owner."
      },
      "ownerOf(uint256)": {
        "details": "See {IERC721-ownerOf}."
      },
      "renounceOwnership()": {
        "details": "Leaves the contract without owner. It will not be possible to call `onlyOwner` functions anymore. Can only be called by the current owner. NOTE: Renouncing ownership will leave the contract without an owner, thereby removing any functionality that is only available to the owner."
      },
      "safeTransferFrom(address,address,uint256)": {
        "details": "See {IERC721-safeTransferFrom}."
      },
      "safeTransferFrom(address,address,uint256,bytes)": {
        "details": "See {IERC721-safeTransferFrom}."
      },
      "setApprovalForAll(address,bool)": {
        "details": "See {IERC721-setApprovalForAll}."
      },
      "symbol()": {
        "details": "See {IERC721Metadata-symbol}."
      },
      "tokenByIndex(uint256)": {
        "details": "See {IERC721Enumerable-tokenByIndex}."
      },
      "tokenOfOwnerByIndex(address,uint256)": {
        "details": "See {IERC721Enumerable-tokenOfOwnerByIndex}."
      },
      "tokenURI(uint256)": {
        "details": "See {IERC721Metadata-tokenURI}."
      },
      "totalSupply()": {
        "details": "See {IERC721Enumerable-totalSupply}."
      },
      "transferFrom(address,address,uint256)": {
        "details": "See {IERC721-transferFrom}."
      },
      "transferOwnership(address)": {
        "details": "Transfers ownership of the contract to a new account (`newOwner`). Can only be called by the current owner."
      }
    },
    "version": 1
  },
  "userdoc": {
    "kind": "user",
    "methods": {},
    "version": 1
  }
}